{
  "address": "0x2dE7e38CCDe6E10CfC23D74352ceCDe11238a05E",
  "abi": [
    {
      "inputs": [],
      "stateMutability": "nonpayable",
      "type": "constructor"
    },
    {
      "inputs": [
        {
          "internalType": "bytes32",
          "name": "role",
          "type": "bytes32"
        }
      ],
      "name": "Access_MissingRoleOrAdmin",
      "type": "error"
    },
    {
      "inputs": [],
      "name": "Access_OnlyAdmin",
      "type": "error"
    },
    {
      "inputs": [],
      "name": "Access_OnlyMinter",
      "type": "error"
    },
    {
      "inputs": [],
      "name": "Access_WithdrawNotAllowed",
      "type": "error"
    },
    {
      "inputs": [
        {
          "internalType": "address",
          "name": "proposedAddress",
          "type": "address"
        }
      ],
      "name": "Admin_InvalidUpgradeAddress",
      "type": "error"
    },
    {
      "inputs": [],
      "name": "Admin_UnableToFinalizeNotOpenEdition",
      "type": "error"
    },
    {
      "inputs": [
        {
          "internalType": "uint128",
          "name": "countdownEnd",
          "type": "uint128"
        },
        {
          "internalType": "uint128",
          "name": "mintTimeCost",
          "type": "uint128"
        }
      ],
      "name": "CountdownEndMustBeDivisibleByMintTimeCost",
      "type": "error"
    },
    {
      "inputs": [],
      "name": "ExternalMetadataRenderer_CallFailed",
      "type": "error"
    },
    {
      "inputs": [],
      "name": "FeePaymentFailed",
      "type": "error"
    },
    {
      "inputs": [],
      "name": "LazyMint_AlreadyInitialized",
      "type": "error"
    },
    {
      "inputs": [],
      "name": "MintFee_FundsSendFailure",
      "type": "error"
    },
    {
      "inputs": [],
      "name": "Mint_SoldOut",
      "type": "error"
    },
    {
      "inputs": [],
      "name": "NotInitialized",
      "type": "error"
    },
    {
      "inputs": [],
      "name": "Purchase_CountdownCompleted",
      "type": "error"
    },
    {
      "inputs": [],
      "name": "Purchase_TooManyForAddress",
      "type": "error"
    },
    {
      "inputs": [
        {
          "internalType": "uint256",
          "name": "correctPrice",
          "type": "uint256"
        }
      ],
      "name": "Purchase_WrongPrice",
      "type": "error"
    },
    {
      "inputs": [],
      "name": "Sale_Inactive",
      "type": "error"
    },
    {
      "inputs": [
        {
          "internalType": "uint16",
          "name": "maxRoyaltyBPS",
          "type": "uint16"
        }
      ],
      "name": "Setup_RoyaltyPercentageTooHigh",
      "type": "error"
    },
    {
      "inputs": [],
      "name": "Withdraw_FundsSendFailure",
      "type": "error"
    },
    {
      "anonymous": false,
      "inputs": [
        {
          "indexed": false,
          "internalType": "string",
          "name": "prevURI",
          "type": "string"
        },
        {
          "indexed": false,
          "internalType": "string",
          "name": "newURI",
          "type": "string"
        }
      ],
      "name": "ContractURIUpdated",
      "type": "event"
    },
    {
      "anonymous": false,
      "inputs": [
        {
          "indexed": true,
          "internalType": "address",
          "name": "source",
          "type": "address"
        },
        {
          "indexed": false,
          "internalType": "uint256",
          "name": "amount",
          "type": "uint256"
        }
      ],
      "name": "FundsReceived",
      "type": "event"
    },
    {
      "anonymous": false,
      "inputs": [
        {
          "indexed": true,
          "internalType": "address",
          "name": "newAddress",
          "type": "address"
        },
        {
          "indexed": true,
          "internalType": "address",
          "name": "changedBy",
          "type": "address"
        }
      ],
      "name": "FundsRecipientChanged",
      "type": "event"
    },
    {
      "anonymous": false,
      "inputs": [
        {
          "indexed": true,
          "internalType": "address",
          "name": "withdrawnBy",
          "type": "address"
        },
        {
          "indexed": true,
          "internalType": "address",
          "name": "withdrawnTo",
          "type": "address"
        },
        {
          "indexed": false,
          "internalType": "uint256",
          "name": "amount",
          "type": "uint256"
        }
      ],
      "name": "FundsWithdrawn",
      "type": "event"
    },
    {
      "anonymous": false,
      "inputs": [
        {
          "indexed": false,
          "internalType": "uint256",
          "name": "mintFeeAmount",
          "type": "uint256"
        },
        {
          "indexed": false,
          "internalType": "address",
          "name": "mintFeeRecipient",
          "type": "address"
        },
        {
          "indexed": false,
          "internalType": "bool",
          "name": "success",
          "type": "bool"
        }
      ],
      "name": "MintFeePayout",
      "type": "event"
    },
    {
      "anonymous": false,
      "inputs": [
        {
          "indexed": true,
          "internalType": "address",
          "name": "recipient",
          "type": "address"
        },
        {
          "indexed": true,
          "internalType": "uint256",
          "name": "tokenId",
          "type": "uint256"
        },
        {
          "indexed": false,
          "internalType": "uint256",
          "name": "id",
          "type": "uint256"
        }
      ],
      "name": "NFTMinted",
      "type": "event"
    },
    {
      "anonymous": false,
      "inputs": [
        {
          "indexed": true,
          "internalType": "address",
          "name": "sender",
          "type": "address"
        },
        {
          "indexed": false,
          "internalType": "uint256",
          "name": "numberOfMints",
          "type": "uint256"
        }
      ],
      "name": "OpenMintFinalized",
      "type": "event"
    },
    {
      "anonymous": false,
      "inputs": [
        {
          "indexed": true,
          "internalType": "address",
          "name": "to",
          "type": "address"
        },
        {
          "indexed": true,
          "internalType": "uint256",
          "name": "quantity",
          "type": "uint256"
        },
        {
          "indexed": true,
          "internalType": "uint256",
          "name": "pricePerToken",
          "type": "uint256"
        },
        {
          "indexed": false,
          "internalType": "uint256",
          "name": "firstPurchasedTokenId",
          "type": "uint256"
        }
      ],
      "name": "Sale",
      "type": "event"
    },
    {
      "anonymous": false,
      "inputs": [
        {
          "indexed": true,
          "internalType": "address",
          "name": "changedBy",
          "type": "address"
        }
      ],
      "name": "SalesConfigChanged",
      "type": "event"
    },
    {
      "stateMutability": "payable",
      "type": "fallback"
    },
    {
      "inputs": [],
      "name": "ANIMATION_URI",
      "outputs": [
        {
          "internalType": "string",
          "name": "",
          "type": "string"
        }
      ],
      "stateMutability": "view",
      "type": "function"
    },
    {
      "inputs": [],
      "name": "DECRYPTED_MEDIA_URI",
      "outputs": [
        {
          "internalType": "string",
          "name": "",
          "type": "string"
        }
      ],
      "stateMutability": "view",
      "type": "function"
    },
    {
      "inputs": [],
      "name": "DECRYPTION_KEY",
      "outputs": [
        {
          "internalType": "string",
          "name": "",
          "type": "string"
        }
      ],
      "stateMutability": "view",
      "type": "function"
    },
    {
      "inputs": [],
      "name": "DESCRIPTION",
      "outputs": [
        {
          "internalType": "string",
          "name": "",
          "type": "string"
        }
      ],
      "stateMutability": "view",
      "type": "function"
    },
    {
      "inputs": [],
      "name": "ENCRYPTED_MEDIA_URL",
      "outputs": [
        {
          "internalType": "string",
          "name": "",
          "type": "string"
        }
      ],
      "stateMutability": "view",
      "type": "function"
    },
    {
      "inputs": [],
      "name": "END_DATE",
      "outputs": [
        {
          "internalType": "uint256",
          "name": "",
          "type": "uint256"
        }
      ],
      "stateMutability": "view",
      "type": "function"
    },
    {
      "inputs": [],
      "name": "EXTERNAL_URL",
      "outputs": [
        {
          "internalType": "string",
          "name": "",
          "type": "string"
        }
      ],
      "stateMutability": "view",
      "type": "function"
    },
    {
      "inputs": [],
      "name": "HASH",
      "outputs": [
        {
          "internalType": "string",
          "name": "",
          "type": "string"
        }
      ],
      "stateMutability": "view",
      "type": "function"
    },
    {
      "inputs": [],
      "name": "IMAGE_URI",
      "outputs": [
        {
          "internalType": "string",
          "name": "",
          "type": "string"
        }
      ],
      "stateMutability": "view",
      "type": "function"
    },
    {
      "inputs": [],
      "name": "INITIAL_END_DATE",
      "outputs": [
        {
          "internalType": "uint256",
          "name": "",
          "type": "uint256"
        }
      ],
      "stateMutability": "view",
      "type": "function"
    },
    {
      "inputs": [],
      "name": "INITIAL_MAX_SUPPLY",
      "outputs": [
        {
          "internalType": "uint256",
          "name": "",
          "type": "uint256"
        }
      ],
      "stateMutability": "view",
      "type": "function"
    },
    {
      "inputs": [],
      "name": "MINT_INTERVAL",
      "outputs": [
        {
          "internalType": "uint256",
          "name": "",
          "type": "uint256"
        }
      ],
      "stateMutability": "view",
      "type": "function"
    },
    {
      "inputs": [],
      "name": "START_DATE",
      "outputs": [
        {
          "internalType": "uint256",
          "name": "",
          "type": "uint256"
        }
      ],
      "stateMutability": "view",
      "type": "function"
    },
    {
      "inputs": [],
      "name": "contractURI",
      "outputs": [
        {
          "internalType": "string",
          "name": "",
          "type": "string"
        }
      ],
      "stateMutability": "view",
      "type": "function"
    },
    {
      "inputs": [],
      "name": "currentTheoricalMaxSupply",
      "outputs": [
        {
          "internalType": "uint256",
          "name": "",
          "type": "uint256"
        }
      ],
      "stateMutability": "view",
      "type": "function"
    },
    {
      "inputs": [],
      "name": "dropsPriceOracle",
      "outputs": [
        {
          "internalType": "contract IDropsPriceOracle",
          "name": "",
          "type": "address"
        }
      ],
      "stateMutability": "view",
      "type": "function"
    },
    {
      "inputs": [],
      "name": "getNativePrice",
      "outputs": [
        {
          "internalType": "uint256",
          "name": "",
          "type": "uint256"
        }
      ],
      "stateMutability": "view",
      "type": "function"
    },
    {
      "inputs": [
        {
          "internalType": "bytes",
          "name": "initPayload",
          "type": "bytes"
        }
      ],
      "name": "init",
      "outputs": [
        {
          "internalType": "bytes4",
          "name": "",
          "type": "bytes4"
        }
      ],
      "stateMutability": "nonpayable",
      "type": "function"
    },
    {
      "inputs": [
        {
          "internalType": "address",
          "name": "user",
          "type": "address"
        }
      ],
      "name": "isAdmin",
      "outputs": [
        {
          "internalType": "bool",
          "name": "",
          "type": "bool"
        }
      ],
      "stateMutability": "view",
      "type": "function"
    },
    {
      "inputs": [
        {
          "internalType": "address",
          "name": "wallet",
          "type": "address"
        }
      ],
      "name": "isOwner",
      "outputs": [
        {
          "internalType": "bool",
          "name": "",
          "type": "bool"
        }
      ],
      "stateMutability": "view",
      "type": "function"
    },
    {
      "inputs": [],
      "name": "isOwner",
      "outputs": [
        {
          "internalType": "bool",
          "name": "",
          "type": "bool"
        }
      ],
      "stateMutability": "view",
      "type": "function"
    },
    {
      "inputs": [
        {
          "internalType": "address",
          "name": "recipient",
          "type": "address"
        },
        {
          "internalType": "uint256",
          "name": "quantity",
          "type": "uint256"
        }
      ],
      "name": "mintTo",
      "outputs": [
        {
          "internalType": "uint256",
          "name": "",
          "type": "uint256"
        }
      ],
      "stateMutability": "nonpayable",
      "type": "function"
    },
    {
      "inputs": [
        {
          "internalType": "address",
          "name": "minter",
          "type": "address"
        }
      ],
      "name": "mintedPerAddress",
      "outputs": [
        {
          "components": [
            {
              "internalType": "uint256",
              "name": "totalMints",
              "type": "uint256"
            },
            {
              "internalType": "uint256",
              "name": "presaleMints",
              "type": "uint256"
            },
            {
              "internalType": "uint256",
              "name": "publicMints",
              "type": "uint256"
            }
          ],
          "internalType": "struct AddressMintDetails",
          "name": "",
          "type": "tuple"
        }
      ],
      "stateMutability": "view",
      "type": "function"
    },
    {
      "inputs": [],
      "name": "minter",
      "outputs": [
        {
          "internalType": "address",
          "name": "",
          "type": "address"
        }
      ],
      "stateMutability": "view",
      "type": "function"
    },
    {
      "inputs": [
        {
          "internalType": "bytes[]",
          "name": "data",
          "type": "bytes[]"
        }
      ],
      "name": "multicall",
      "outputs": [
        {
          "internalType": "bytes[]",
          "name": "results",
          "type": "bytes[]"
        }
      ],
      "stateMutability": "nonpayable",
      "type": "function"
    },
    {
      "inputs": [],
      "name": "name",
      "outputs": [
        {
          "internalType": "string",
          "name": "",
          "type": "string"
        }
      ],
      "stateMutability": "view",
      "type": "function"
    },
    {
      "inputs": [],
      "name": "owner",
      "outputs": [
        {
          "internalType": "address",
          "name": "",
          "type": "address"
        }
      ],
      "stateMutability": "view",
      "type": "function"
    },
    {
      "inputs": [
        {
          "internalType": "uint256",
          "name": "quantity",
          "type": "uint256"
        }
      ],
      "name": "purchase",
      "outputs": [
        {
          "internalType": "uint256",
          "name": "",
          "type": "uint256"
        }
      ],
      "stateMutability": "payable",
      "type": "function"
    },
    {
      "inputs": [],
      "name": "saleDetails",
      "outputs": [
        {
          "components": [
            {
              "internalType": "bool",
              "name": "publicSaleActive",
              "type": "bool"
            },
            {
              "internalType": "uint256",
              "name": "publicSalePrice",
              "type": "uint256"
            },
            {
              "internalType": "uint256",
              "name": "publicSaleStart",
              "type": "uint256"
            },
            {
              "internalType": "uint256",
              "name": "maxSalePurchasePerAddress",
              "type": "uint256"
            },
            {
              "internalType": "uint256",
              "name": "totalMinted",
              "type": "uint256"
            },
            {
              "internalType": "uint256",
              "name": "maxSupply",
              "type": "uint256"
            }
          ],
          "internalType": "struct CustomERC721SaleDetails",
          "name": "",
          "type": "tuple"
        }
      ],
      "stateMutability": "view",
      "type": "function"
    },
    {
      "inputs": [],
      "name": "salesConfig",
      "outputs": [
        {
          "internalType": "uint104",
          "name": "publicSalePrice",
          "type": "uint104"
        },
        {
          "internalType": "uint24",
          "name": "maxSalePurchasePerAddress",
          "type": "uint24"
        }
      ],
      "stateMutability": "view",
      "type": "function"
    },
    {
      "inputs": [
        {
          "internalType": "string",
          "name": "_uri",
          "type": "string"
        }
      ],
      "name": "setContractURI",
      "outputs": [],
      "stateMutability": "nonpayable",
      "type": "function"
    },
    {
      "inputs": [
        {
          "internalType": "address payable",
          "name": "newRecipientAddress",
          "type": "address"
        }
      ],
      "name": "setFundsRecipient",
      "outputs": [],
      "stateMutability": "nonpayable",
      "type": "function"
    },
    {
      "inputs": [
        {
          "components": [
            {
              "internalType": "string",
              "name": "name",
              "type": "string"
            },
            {
              "internalType": "string",
              "name": "description",
              "type": "string"
            },
            {
              "internalType": "string",
              "name": "imageURI",
              "type": "string"
            },
            {
              "internalType": "string",
              "name": "animationURI",
              "type": "string"
            },
            {
              "internalType": "string",
              "name": "externalUrl",
              "type": "string"
            },
            {
              "internalType": "string",
              "name": "encryptedMediaUrl",
              "type": "string"
            },
            {
              "internalType": "string",
              "name": "decryptionKey",
              "type": "string"
            },
            {
              "internalType": "string",
              "name": "hash",
              "type": "string"
            },
            {
              "internalType": "string",
              "name": "decryptedMediaUrl",
              "type": "string"
            },
            {
              "internalType": "uint256",
              "name": "tokenOfEdition",
              "type": "uint256"
            },
            {
              "internalType": "uint256",
              "name": "editionSize",
              "type": "uint256"
            }
          ],
          "internalType": "struct MetadataParams",
          "name": "params",
          "type": "tuple"
        }
      ],
      "name": "setMetadataParams",
      "outputs": [],
      "stateMutability": "nonpayable",
      "type": "function"
    },
    {
      "inputs": [
        {
          "internalType": "address",
          "name": "minterAddress",
          "type": "address"
        }
      ],
      "name": "setMinter",
      "outputs": [],
      "stateMutability": "nonpayable",
      "type": "function"
    },
    {
      "inputs": [
        {
          "internalType": "uint104",
          "name": "publicSalePrice",
          "type": "uint104"
        },
        {
          "internalType": "uint24",
          "name": "maxSalePurchasePerAddress",
          "type": "uint24"
        }
      ],
      "name": "setSaleConfiguration",
      "outputs": [],
      "stateMutability": "nonpayable",
      "type": "function"
    },
    {
      "inputs": [
        {
          "internalType": "bytes4",
          "name": "interfaceId",
          "type": "bytes4"
        }
      ],
      "name": "supportsInterface",
      "outputs": [
        {
          "internalType": "bool",
          "name": "",
          "type": "bool"
        }
      ],
      "stateMutability": "pure",
      "type": "function"
    },
    {
      "inputs": [
        {
          "internalType": "uint256",
          "name": "tokenId",
          "type": "uint256"
        }
      ],
      "name": "tokenURI",
      "outputs": [
        {
          "internalType": "string",
          "name": "",
          "type": "string"
        }
      ],
      "stateMutability": "view",
      "type": "function"
    },
    {
      "inputs": [],
      "name": "totalMinted",
      "outputs": [
        {
          "internalType": "uint256",
          "name": "",
          "type": "uint256"
        }
      ],
      "stateMutability": "view",
      "type": "function"
    },
    {
      "inputs": [
        {
          "internalType": "address",
          "name": "",
          "type": "address"
        }
      ],
      "name": "totalMintsByAddress",
      "outputs": [
        {
          "internalType": "uint256",
          "name": "",
          "type": "uint256"
        }
      ],
      "stateMutability": "view",
      "type": "function"
    },
    {
      "inputs": [],
      "name": "version",
      "outputs": [
        {
          "internalType": "uint32",
          "name": "",
          "type": "uint32"
        }
      ],
      "stateMutability": "pure",
      "type": "function"
    },
    {
      "inputs": [],
      "name": "withdraw",
      "outputs": [],
      "stateMutability": "nonpayable",
      "type": "function"
    },
    {
      "stateMutability": "payable",
      "type": "receive"
    }
  ],
  "transactionHash": "0xd54c8c977c082fe0a42c4635a15e2603d9de9a5a72e673bddb4c280bc95ead86",
  "args": [],
  "numDeployments": 2,
  "solcInputHash": "28395e7c96e11e4e62ac0ee7ed7a3253",
  "bytecode": "0x608060405234801561001057600080fd5b506145c6806100206000396000f3fe6080604052600436106102ca5760003560e01c80637a80324411610179578063b0fea824116100d6578063e8a3d4851161008a578063f0dbb18311610064578063f0dbb183146108f9578063f1ae88561461090e578063fca3b5aa1461092357610328565b8063e8a3d485146108bb578063ed616341146108d0578063efef39a1146108e657610328565b8063cb0793bc116100bb578063cb0793bc14610844578063d445b97814610864578063e4aab72c146108a657610328565b8063b0fea8241461080f578063c87b56dd1461082457610328565b80638f32d59b1161012d578063938e3d7b11610112578063938e3d7b1461078f578063a2309ff8146107af578063ac9650d8146107e257610328565b80638f32d59b1461074d5780639123f01e1461076257610328565b8063879b5d501161015e578063879b5d50146106fb5780638cb163f4146107105780638da5cb5b1461073857610328565b80637a803244146106d057806384e7e3d3146106e557610328565b80632f54bf6e11610227578063449a52f8116101db5780634ddf47d4116101c05780634ddf47d41461064d578063545599ff1461069e57806354fd4d50146106b457610328565b8063449a52f814610617578063457509bf1461063757610328565b8063372c65331161020c578063372c6533146105d75780633c4aa054146105ed5780633ccfd60b1461060257610328565b80632f54bf6e146105545780633474a4a61461057457610328565b806310a7eb5d1161027e5780631d2c0b38116102635780631d2c0b38146104b857806324d7806c1461051f5780632df667fb1461053f57610328565b806310a7eb5d1461047557806317430c9e1461049557610328565b806306fdde03116102af57806306fdde03146103ec5780630708ab7b14610401578063075461721461042357610328565b806301ffc9a7146103535780630322ed08146103ca57610328565b36610328576102d7610943565b73ffffffffffffffffffffffffffffffffffffffff167f8e47b87b0ef542cdfa1659c551d88bad38aa7f452d2bbb349ab7530dfec8be8f3460405161031e91815260200190565b60405180910390a2005b6040517f46756e6374696f6e206e6f7420666f756e6400000000000000000000000000008152601481fd5b34801561035f57600080fd5b506103b561036e3660046135b3565b7fffffffff00000000000000000000000000000000000000000000000000000000167f19a31fdc000000000000000000000000000000000000000000000000000000001490565b60405190151581526020015b60405180910390f35b3480156103d657600080fd5b506103df6109a2565b6040516103c1919061366f565b3480156103f857600080fd5b506103df610a30565b34801561040d57600080fd5b5061042161041c3660046137ea565b610aef565b005b34801561042f57600080fd5b506007546104509073ffffffffffffffffffffffffffffffffffffffff1681565b60405173ffffffffffffffffffffffffffffffffffffffff90911681526020016103c1565b34801561048157600080fd5b506104216104903660046139b6565b610c6b565b3480156104a157600080fd5b506104aa610e6f565b6040519081526020016103c1565b3480156104c457600080fd5b506011546104f6906cffffffffffffffffffffffffff8116906d0100000000000000000000000000900462ffffff1682565b604080516cffffffffffffffffffffffffff909316835262ffffff9091166020830152016103c1565b34801561052b57600080fd5b506103b561053a3660046139b6565b610e8d565b34801561054b57600080fd5b506104aa610eeb565b34801561056057600080fd5b506103b561056f3660046139b6565b610f59565b34801561058057600080fd5b50610589610fb8565b6040516103c19190600060c0820190508251151582526020830151602083015260408301516040830152606083015160608301526080830151608083015260a083015160a083015292915050565b3480156105e357600080fd5b506104aa60015481565b3480156105f957600080fd5b506103df611081565b34801561060e57600080fd5b5061042161108e565b34801561062357600080fd5b506104aa6106323660046139d3565b61139f565b34801561064357600080fd5b506104aa60055481565b34801561065957600080fd5b5061066d6106683660046139ff565b6114a1565b6040517fffffffff0000000000000000000000000000000000000000000000000000000090911681526020016103c1565b3480156106aa57600080fd5b506104aa60065481565b3480156106c057600080fd5b50604051600181526020016103c1565b3480156106dc57600080fd5b506103df6117a2565b3480156106f157600080fd5b506104aa60035481565b34801561070757600080fd5b506103df6117af565b34801561071c57600080fd5b5061045073ea7f4c52cbd4cf1036cdca8b16aca11f5b09cf6e81565b34801561074457600080fd5b506104506117bc565b34801561075957600080fd5b506103b56117e6565b34801561076e57600080fd5b506104aa61077d3660046139b6565b60126020526000908152604090205481565b34801561079b57600080fd5b506104216107aa3660046139ff565b61184a565b3480156107bb57600080fd5b506010547bffffffffffffffffffffffffffffffffffffffffffffffffffffffff166104aa565b3480156107ee57600080fd5b506108026107fd366004613a34565b6118c4565b6040516103c19190613af7565b34801561081b57600080fd5b506103df6119a3565b34801561083057600080fd5b506103df61083f366004613b77565b6119b0565b34801561085057600080fd5b5061042161085f366004613bbc565b61201c565b34801561087057600080fd5b5061088461087f3660046139b6565b612179565b60408051825181526020808401519082015291810151908201526060016103c1565b3480156108b257600080fd5b506103df6121e6565b3480156108c757600080fd5b506103df6121f3565b3480156108dc57600080fd5b506104aa60025481565b6104aa6108f4366004613b77565b612200565b34801561090557600080fd5b506103df6126dd565b34801561091a57600080fd5b506103df6126ea565b34801561092f57600080fd5b5061042161093e3660046139b6565b6126f7565b60007fe9fcff60011c1a99f7b7244d1f2d9da93d79ea8ef3654ce590d775575255b2bd5433146000811461099a5750507fffffffffffffffffffffffffffffffffffffffffffffffffffffffffffffffe036013590565b3391505b5090565b600e80546109af90613bf5565b80601f01602080910402602001604051908101604052809291908181526020018280546109db90613bf5565b8015610a285780601f106109fd57610100808354040283529160200191610a28565b820191906000526020600020905b815481529060010190602001808311610a0b57829003601f168201915b505050505081565b6060610a5a7fe9fcff60011c1a99f7b7244d1f2d9da93d79ea8ef3654ce590d775575255b2bd5490565b73ffffffffffffffffffffffffffffffffffffffff166306fdde036040518163ffffffff1660e01b8152600401600060405180830381865afa158015610aa4573d6000803e3d6000fd5b505050506040513d6000823e601f3d9081017fffffffffffffffffffffffffffffffffffffffffffffffffffffffffffffffe0168201604052610aea9190810190613c87565b905090565b7fb56711ba6bd3ded7639fc335ee7524fe668a79d7558c85992e3f8494cf7727775473ffffffffffffffffffffffffffffffffffffffff16610b2f610943565b73ffffffffffffffffffffffffffffffffffffffff1614610bb1576040517f08c379a000000000000000000000000000000000000000000000000000000000815260206004820152601b60248201527f4552433732313a206f776e6572206f6e6c792066756e6374696f6e000000000060448201526064015b60405180910390fd5b60408101518051610bca91600991602090910190613523565b5060608101518051610be491600a91602090910190613523565b5060808101518051610bfe91600b91602090910190613523565b5060a08101518051610c1891600c91602090910190613523565b5060c08101518051610c3291600d91602090910190613523565b5060e08101518051610c4c91600e91602090910190613523565b506101008101518051610c6791600f91602090910190613523565b5050565b7fb56711ba6bd3ded7639fc335ee7524fe668a79d7558c85992e3f8494cf7727775473ffffffffffffffffffffffffffffffffffffffff16610cab610943565b73ffffffffffffffffffffffffffffffffffffffff1614610d28576040517f08c379a000000000000000000000000000000000000000000000000000000000815260206004820152601b60248201527f4552433732313a206f776e6572206f6e6c792066756e6374696f6e00000000006044820152606401610ba8565b73ffffffffffffffffffffffffffffffffffffffff8116610dcb576040517f08c379a000000000000000000000000000000000000000000000000000000000815260206004820152602360248201527f46756e647320526563697069656e742063616e6e6f742062652030206164647260448201527f65737300000000000000000000000000000000000000000000000000000000006064820152608401610ba8565b600480547fffffffffffffffffffffffff00000000000000000000000000000000000000001673ffffffffffffffffffffffffffffffffffffffff8316179055610e13610943565b73ffffffffffffffffffffffffffffffffffffffff168173ffffffffffffffffffffffffffffffffffffffff167f70a7ea5c664ab9c21baf3da59bb2f1e1ca33557b08a0031fab4f17076744995160405160405180910390a350565b601154600090610aea906cffffffffffffffffffffffffff166127f7565b60008173ffffffffffffffffffffffffffffffffffffffff16610ece7fb56711ba6bd3ded7639fc335ee7524fe668a79d7558c85992e3f8494cf7727775490565b73ffffffffffffffffffffffffffffffffffffffff161492915050565b60006001544211610efd575060025490565b600354600254610f0d9190613ceb565b600154610f1a9190613d28565b4210610f265750600090565b600060035460015442610f399190613d40565b610f439190613d57565b905080600254610f539190613d40565b91505090565b6000610f837fb56711ba6bd3ded7639fc335ee7524fe668a79d7558c85992e3f8494cf7727775490565b73ffffffffffffffffffffffffffffffffffffffff168273ffffffffffffffffffffffffffffffffffffffff16149050919050565b610ff36040518060c0016040528060001515815260200160008152602001600081526020016000815260200160008152602001600081525090565b6040518060c0016040528061100a60015442101590565b151581526011546cffffffffffffffffffffffffff8116602083015260015460408301526d0100000000000000000000000000900462ffffff1660608201526010547bffffffffffffffffffffffffffffffffffffffffffffffffffffffff16608082015260a00161107a610eeb565b9052919050565b600d80546109af90613bf5565b7f04b524dd539523930d3901481aa9455d7752b49add99e1647adb8b09a313727954600203611119576040517f08c379a000000000000000000000000000000000000000000000000000000000815260206004820152601960248201527f484f4c4f47524150483a207265656e7472616e742063616c6c000000000000006044820152606401610ba8565b61114260027f04b524dd539523930d3901481aa9455d7752b49add99e1647adb8b09a313727955565b60045473ffffffffffffffffffffffffffffffffffffffff166111c1576040517f08c379a000000000000000000000000000000000000000000000000000000000815260206004820152601f60248201527f46756e647320526563697069656e742061646472657373206e6f7420736574006044820152606401610ba8565b60006111cb610943565b600454909150479073ffffffffffffffffffffffffffffffffffffffff80841691161480159061124857507fb56711ba6bd3ded7639fc335ee7524fe668a79d7558c85992e3f8494cf7727775473ffffffffffffffffffffffffffffffffffffffff168273ffffffffffffffffffffffffffffffffffffffff1614155b1561127f576040517f1dab829b00000000000000000000000000000000000000000000000000000000815260040160405180910390fd5b60045460405160009173ffffffffffffffffffffffffffffffffffffffff16906203345090849084818181858888f193505050503d80600081146112df576040519150601f19603f3d011682016040523d82523d6000602084013e6112e4565b606091505b505090508061131f576040517f39debd5b00000000000000000000000000000000000000000000000000000000815260040160405180910390fd5b60045460405183815273ffffffffffffffffffffffffffffffffffffffff918216918516907fa92ff919b850e4909ab2261d907ef955f11bc1716733a6cbece38d163a69af8a9060200160405180910390a350505061139d60017f04b524dd539523930d3901481aa9455d7752b49add99e1647adb8b09a313727955565b565b60075460009073ffffffffffffffffffffffffffffffffffffffff166113c3610943565b73ffffffffffffffffffffffffffffffffffffffff1614611410576040517fd7ae9e8300000000000000000000000000000000000000000000000000000000815260040160405180910390fd5b8161141c600182613d40565b6003546114299190613ceb565b6006546114369190613d40565b421061146e576040517f5fe2561a00000000000000000000000000000000000000000000000000000000815260040160405180910390fd5b611478848461289c565b50506010547bffffffffffffffffffffffffffffffffffffffffffffffffffffffff1692915050565b60006114cb7f4e5f991bca30eca2d4643aaefa807e88f96a4a97398933d572a3c0d973004a015490565b15611532576040517f08c379a000000000000000000000000000000000000000000000000000000000815260206004820152601e60248201527f484f4c4f47524150483a20616c726561647920696e697469616c697a656400006044820152606401610ba8565b337fe9fcff60011c1a99f7b7244d1f2d9da93d79ea8ef3654ce590d775575255b2bd5560008280602001905181019061156b9190613e36565b905061159a8161010001517fb56711ba6bd3ded7639fc335ee7524fe668a79d7558c85992e3f8494cf77277755565b610120810151600780547fffffffffffffffffffffffff00000000000000000000000000000000000000001673ffffffffffffffffffffffffffffffffffffffff90921691909117905560a081015164ffffffffff1660015560c081015163ffffffff811660025560e082015162ffffff166003819055610140830151600480547fffffffffffffffffffffffff00000000000000000000000000000000000000001673ffffffffffffffffffffffffffffffffffffffff9092169190911790556000916116689190613fda565b63ffffffff168260a0015161167d9190614006565b64ffffffffff166006819055600581905561018083015180516011805460209093015162ffffff166d0100000000000000000000000000027fffffffffffffffffffffffffffffffff000000000000000000000000000000009093166cffffffffffffffffffffffffff9092169190911791909117905561016083015190915061170690612ca1565b8151805161171c91600891602090910190613523565b506020808301518051611733926009920190613523565b506040820151805161174d91600a91602090910190613523565b506060820151805161176791600b91602090910190613523565b5061179160017f04b524dd539523930d3901481aa9455d7752b49add99e1647adb8b09a313727955565b61179a84612d82565b949350505050565b600980546109af90613bf5565b600a80546109af90613bf5565b6000610aea7fb56711ba6bd3ded7639fc335ee7524fe668a79d7558c85992e3f8494cf7727775490565b60006118107fb56711ba6bd3ded7639fc335ee7524fe668a79d7558c85992e3f8494cf7727775490565b73ffffffffffffffffffffffffffffffffffffffff1661182e610943565b73ffffffffffffffffffffffffffffffffffffffff1614905090565b6118526117e6565b6118b8576040517f08c379a000000000000000000000000000000000000000000000000000000000815260206004820152600e60248201527f4e6f7420617574686f72697a65640000000000000000000000000000000000006044820152606401610ba8565b6118c181612ca1565b50565b6060815167ffffffffffffffff8111156118e0576118e0613682565b60405190808252806020026020018201604052801561191357816020015b60608152602001906001900390816118fe5790505b50905060005b825181101561199d5761196d308483815181106119385761193861402f565b6020026020010151611948610943565b60405160200161195992919061407a565b604051602081830303815290604052612f29565b82828151811061197f5761197f61402f565b60200260200101819052508080611995906140c4565b915050611919565b50919050565b600f80546109af90613bf5565b606060006119dc7fe9fcff60011c1a99f7b7244d1f2d9da93d79ea8ef3654ce590d775575255b2bd5490565b6040517f4f558e790000000000000000000000000000000000000000000000000000000081526004810185905290915073ffffffffffffffffffffffffffffffffffffffff821690634f558e7990602401602060405180830381865afa158015611a4a573d6000803e3d6000fd5b505050506040513d601f19601f82011682018060405250810190611a6e91906140fc565b611ad4576040517f08c379a000000000000000000000000000000000000000000000000000000000815260206004820152601c60248201527f4552433732313a20746f6b656e20646f6573206e6f74206578697374000000006044820152606401610ba8565b60008173ffffffffffffffffffffffffffffffffffffffff166306fdde036040518163ffffffff1660e01b8152600401600060405180830381865afa158015611b21573d6000803e3d6000fd5b505050506040513d6000823e601f3d9081017fffffffffffffffffffffffffffffffffffffffffffffffffffffffffffffffe0168201604052611b679190810190613c87565b9050600060405180610160016040528083815260200160088054611b8a90613bf5565b80601f0160208091040260200160405190810160405280929190818152602001828054611bb690613bf5565b8015611c035780601f10611bd857610100808354040283529160200191611c03565b820191906000526020600020905b815481529060010190602001808311611be657829003601f168201915b5050505050815260200160098054611c1a90613bf5565b80601f0160208091040260200160405190810160405280929190818152602001828054611c4690613bf5565b8015611c935780601f10611c6857610100808354040283529160200191611c93565b820191906000526020600020905b815481529060010190602001808311611c7657829003601f168201915b50505050508152602001600a8054611caa90613bf5565b80601f0160208091040260200160405190810160405280929190818152602001828054611cd690613bf5565b8015611d235780601f10611cf857610100808354040283529160200191611d23565b820191906000526020600020905b815481529060010190602001808311611d0657829003601f168201915b50505050508152602001600b8054611d3a90613bf5565b80601f0160208091040260200160405190810160405280929190818152602001828054611d6690613bf5565b8015611db35780601f10611d8857610100808354040283529160200191611db3565b820191906000526020600020905b815481529060010190602001808311611d9657829003601f168201915b50505050508152602001600c8054611dca90613bf5565b80601f0160208091040260200160405190810160405280929190818152602001828054611df690613bf5565b8015611e435780601f10611e1857610100808354040283529160200191611e43565b820191906000526020600020905b815481529060010190602001808311611e2657829003601f168201915b50505050508152602001600d8054611e5a90613bf5565b80601f0160208091040260200160405190810160405280929190818152602001828054611e8690613bf5565b8015611ed35780601f10611ea857610100808354040283529160200191611ed3565b820191906000526020600020905b815481529060010190602001808311611eb657829003601f168201915b50505050508152602001600e8054611eea90613bf5565b80601f0160208091040260200160405190810160405280929190818152602001828054611f1690613bf5565b8015611f635780601f10611f3857610100808354040283529160200191611f63565b820191906000526020600020905b815481529060010190602001808311611f4657829003601f168201915b50505050508152602001600f8054611f7a90613bf5565b80601f0160208091040260200160405190810160405280929190818152602001828054611fa690613bf5565b8015611ff35780601f10611fc857610100808354040283529160200191611ff3565b820191906000526020600020905b815481529060010190602001808311611fd657829003601f168201915b505050505081526020018681526020016000815250905061201381612f55565b95945050505050565b7fb56711ba6bd3ded7639fc335ee7524fe668a79d7558c85992e3f8494cf7727775473ffffffffffffffffffffffffffffffffffffffff1661205c610943565b73ffffffffffffffffffffffffffffffffffffffff16146120d9576040517f08c379a000000000000000000000000000000000000000000000000000000000815260206004820152601b60248201527f4552433732313a206f776e6572206f6e6c792066756e6374696f6e00000000006044820152606401610ba8565b6011805462ffffff83166d0100000000000000000000000000027fffffffffffffffffffffffffffffffff000000000000000000000000000000009091166cffffffffffffffffffffffffff851617179055612133610943565b73ffffffffffffffffffffffffffffffffffffffff167fc1ff5e4744ac8dd2b8027a10e3723b165975297501c71c4e7dcb8796d96375db60405160405180910390a25050565b61219d60405180606001604052806000815260200160008152602001600081525090565b506040805160608101825273ffffffffffffffffffffffffffffffffffffffff909216600081815260126020818152848320548087528187018490529390925290529082015290565b600c80546109af90613bf5565b600080546109af90613bf5565b600061222a7f04b524dd539523930d3901481aa9455d7752b49add99e1647adb8b09a31372795490565b600203612293576040517f08c379a000000000000000000000000000000000000000000000000000000000815260206004820152601960248201527f484f4c4f47524150483a207265656e7472616e742063616c6c000000000000006044820152606401610ba8565b6122bc60027f04b524dd539523930d3901481aa9455d7752b49add99e1647adb8b09a313727955565b816122c8600182613d40565b6003546122d59190613ceb565b6006546122e29190613d40565b421061231a576040517f5fe2561a00000000000000000000000000000000000000000000000000000000815260040160405180910390fd5b600154421015612356576040517ff12dcc7f00000000000000000000000000000000000000000000000000000000815260040160405180910390fd5b601154600090612374906cffffffffffffffffffffffffff166127f7565b90506123808482613ceb565b3410156123d9576011546123a49085906cffffffffffffffffffffffffff16613ceb565b6040517f6a1c179e000000000000000000000000000000000000000000000000000000008152600401610ba891815260200190565b6003546123e69085613ceb565b6006546123f39190613d40565b60065560006124028583613ceb565b61240c9034613d40565b6011549091506d0100000000000000000000000000900462ffffff161580159061249e57506011546d0100000000000000000000000000900462ffffff168560126000612457610943565b73ffffffffffffffffffffffffffffffffffffffff1673ffffffffffffffffffffffffffffffffffffffff1681526020019081526020016000205461249c9190613d28565b115b156124d5576040517f220ae94c00000000000000000000000000000000000000000000000000000000815260040160405180910390fd5b6124e66124e0610943565b8661289c565b60006125107fe9fcff60011c1a99f7b7244d1f2d9da93d79ea8ef3654ce590d775575255b2bd5490565b905060008173ffffffffffffffffffffffffffffffffffffffff166377dbd8636040518163ffffffff1660e01b8152600401602060405180830381865afa15801561255f573d6000803e3d6000fd5b505050506040513d601f19601f82011682018060405250810190612583919061411e565b6010549091506000906125b59089907bffffffffffffffffffffffffffffffffffffffffffffffffffffffff16613d40565b6125bf9083613d28565b6125ca906001613d28565b905084886125d6610943565b73ffffffffffffffffffffffffffffffffffffffff167f4e26b0356a15833a75d497ecc40ebbb716b99466ed0dba9454f1fff451e25a908460405161261d91815260200190565b60405180910390a483156126a857612633610943565b73ffffffffffffffffffffffffffffffffffffffff1684620334505a1161265a575a61265f565b620334505b6040519091906000818181858888f193505050503d806000811461269f576040519150601f19603f3d011682016040523d82523d6000602084013e6126a4565b606091505b5050505b955050505050506126d860017f04b524dd539523930d3901481aa9455d7752b49add99e1647adb8b09a313727955565b919050565b600b80546109af90613bf5565b600880546109af90613bf5565b7fb56711ba6bd3ded7639fc335ee7524fe668a79d7558c85992e3f8494cf7727775473ffffffffffffffffffffffffffffffffffffffff16612737610943565b73ffffffffffffffffffffffffffffffffffffffff16146127b4576040517f08c379a000000000000000000000000000000000000000000000000000000000815260206004820152601b60248201527f4552433732313a206f776e6572206f6e6c792066756e6374696f6e00000000006044820152606401610ba8565b600780547fffffffffffffffffffffffff00000000000000000000000000000000000000001673ffffffffffffffffffffffffffffffffffffffff831617905550565b60008160000361280957506000919050565b6040517ff5d781610000000000000000000000000000000000000000000000000000000081526004810183905273ea7f4c52cbd4cf1036cdca8b16aca11f5b09cf6e9063f5d7816190602401602060405180830381865afa158015612872573d6000803e3d6000fd5b505050506040513d601f19601f82011682018060405250810190612896919061411e565b92915050565b60006128c67fe9fcff60011c1a99f7b7244d1f2d9da93d79ea8ef3654ce590d775575255b2bd5490565b905060008173ffffffffffffffffffffffffffffffffffffffff166377dbd8636040518163ffffffff1660e01b8152600401602060405180830381865afa158015612915573d6000803e3d6000fd5b505050506040513d601f19601f82011682018060405250810190612939919061411e565b90506000805b848114612c9957601080547bffffffffffffffffffffffffffffffffffffffffffffffffffffffff808216600101167fffffffff000000000000000000000000000000000000000000000000000000009091161790555b60105473ffffffffffffffffffffffffffffffffffffffff851690634f558e79906129df907bffffffffffffffffffffffffffffffffffffffffffffffffffffffff1686613d28565b6040518263ffffffff1660e01b81526004016129fd91815260200190565b602060405180830381865afa158015612a1a573d6000803e3d6000fd5b505050506040513d601f19601f82011682018060405250810190612a3e91906140fc565b80612aec575060105473ffffffffffffffffffffffffffffffffffffffff8516906323250cae90612a8d907bffffffffffffffffffffffffffffffffffffffffffffffffffffffff1686613d28565b6040518263ffffffff1660e01b8152600401612aab91815260200190565b602060405180830381865afa158015612ac8573d6000803e3d6000fd5b505050506040513d601f19601f82011682018060405250810190612aec91906140fc565b15612b4557601080547bffffffffffffffffffffffffffffffffffffffffffffffffffffffff808216600101167fffffffff00000000000000000000000000000000000000000000000000000000909116179055612996565b6010546040517f3b4f1b2600000000000000000000000000000000000000000000000000000000815273ffffffffffffffffffffffffffffffffffffffff88811660048301527bffffffffffffffffffffffffffffffffffffffffffffffffffffffff90921660248201819052935090851690633b4f1b2690604401600060405180830381600087803b158015612bdb57600080fd5b505af1158015612bef573d6000803e3d6000fd5b505050506000827bffffffffffffffffffffffffffffffffffffffffffffffffffffffff1684612c1f9190613d28565b9050827bffffffffffffffffffffffffffffffffffffffffffffffffffffffff168773ffffffffffffffffffffffffffffffffffffffff167f3a8a89b59a31c39a36febecb987e0657ab7b7c73b60ebacb44dcb9886c2d5c8a83604051612c8891815260200190565b60405180910390a35060010161293f565b505050505050565b6000808054612caf90613bf5565b80601f0160208091040260200160405190810160405280929190818152602001828054612cdb90613bf5565b8015612d285780601f10612cfd57610100808354040283529160200191612d28565b820191906000526020600020905b815481529060010190602001808311612d0b57829003601f168201915b50508551939450612d4493600093506020870192509050613523565b507fc9c7c3fe08b88b4df9d4d47ef47d2c43d55c025a0ba88ca442580ed9e7348a168183604051612d76929190614137565b60405180910390a15050565b6000612dac7f4e5f991bca30eca2d4643aaefa807e88f96a4a97398933d572a3c0d973004a015490565b15612e13576040517f08c379a000000000000000000000000000000000000000000000000000000000815260206004820152601b60248201527f4552433732313a20616c726561647920696e697469616c697a656400000000006044820152606401610ba8565b337fe9fcff60011c1a99f7b7244d1f2d9da93d79ea8ef3654ce590d775575255b2bd8190557fb56711ba6bd3ded7639fc335ee7524fe668a79d7558c85992e3f8494cf7727775473ffffffffffffffffffffffffffffffffffffffff8116612ed7576040517f08c379a000000000000000000000000000000000000000000000000000000000815260206004820152601860248201527f484f4c4f47524150483a206f776e6572206e6f742073657400000000000000006044820152606401610ba8565b612f0060017f4e5f991bca30eca2d4643aaefa807e88f96a4a97398933d572a3c0d973004a0155565b507f4ddf47d4000000000000000000000000000000000000000000000000000000009392505050565b6060612f4e838360405180606001604052806027815260200161459360279139612f6d565b9392505050565b60606000612f6283612ff2565b9050612f4e8161311b565b60606000808573ffffffffffffffffffffffffffffffffffffffff1685604051612f97919061415c565b600060405180830381855af49150503d8060008114612fd2576040519150601f19603f3d011682016040523d82523d6000602084013e612fd7565b606091505b5091509150612fe88683838761314c565b9695505050505050565b606080606060008461014001511115613035576130138461014001516131ec565b6040516020016130239190614178565b60405160208183030381529060405291505b6130438461012001516131ec565b845160208087015160808801516040808a015160a08b015191519697506130719688958a95949391016141bd565b604080517fffffffffffffffffffffffffffffffffffffffffffffffffffffffffffffffe08184030181529082905260c086015160e08701516101008801516060890151895194956130c7958891602001614343565b604080517fffffffffffffffffffffffffffffffffffffffffffffffffffffffffffffffe08184030181529082905261310392916020016144e7565b60405160208183030381529060405292505050919050565b6060613126826132aa565b604051602001613136919061450d565b6040516020818303038152906040529050919050565b606083156131e25782516000036131db5773ffffffffffffffffffffffffffffffffffffffff85163b6131db576040517f08c379a000000000000000000000000000000000000000000000000000000000815260206004820152601d60248201527f416464726573733a2063616c6c20746f206e6f6e2d636f6e74726163740000006044820152606401610ba8565b508161179a565b61179a83836133fd565b606060006131f983613441565b600101905060008167ffffffffffffffff81111561321957613219613682565b6040519080825280601f01601f191660200182016040528015613243576020820181803683370190505b5090508181016020015b7fffffffffffffffffffffffffffffffffffffffffffffffffffffffffffffffff017f3031323334353637383961626364656600000000000000000000000000000000600a86061a8153600a850494508461324d57509392505050565b606081516000036132c957505060408051602081019091526000815290565b600060405180606001604052806040815260200161455360409139905060006003845160026132f89190613d28565b6133029190613d57565b61330d906004613ceb565b67ffffffffffffffff81111561332557613325613682565b6040519080825280601f01601f19166020018201604052801561334f576020820181803683370190505b509050600182016020820185865187015b808210156133bb576003820191508151603f8160121c168501518453600184019350603f81600c1c168501518453600184019350603f8160061c168501518453600184019350603f8116850151845350600183019250613360565b50506003865106600181146133d757600281146133ea576133f2565b603d6001830353603d60028303536133f2565b603d60018303535b509195945050505050565b81511561340d5781518083602001fd5b806040517f08c379a0000000000000000000000000000000000000000000000000000000008152600401610ba8919061366f565b6000807a184f03e93ff9f4daa797ed6e38ed64bf6a1f010000000000000000831061348a577a184f03e93ff9f4daa797ed6e38ed64bf6a1f010000000000000000830492506040015b6d04ee2d6d415b85acef810000000083106134b6576d04ee2d6d415b85acef8100000000830492506020015b662386f26fc1000083106134d457662386f26fc10000830492506010015b6305f5e10083106134ec576305f5e100830492506008015b612710831061350057612710830492506004015b60648310613512576064830492506002015b600a83106128965760010192915050565b82805461352f90613bf5565b90600052602060002090601f0160209004810192826135515760008555613597565b82601f1061356a57805160ff1916838001178555613597565b82800160010185558215613597579182015b8281111561359757825182559160200191906001019061357c565b5061099e9291505b8082111561099e576000815560010161359f565b6000602082840312156135c557600080fd5b81357fffffffff0000000000000000000000000000000000000000000000000000000081168114612f4e57600080fd5b60005b838110156136105781810151838201526020016135f8565b8381111561361f576000848401525b50505050565b6000815180845261363d8160208601602086016135f5565b601f017fffffffffffffffffffffffffffffffffffffffffffffffffffffffffffffffe0169290920160200192915050565b602081526000612f4e6020830184613625565b7f4e487b7100000000000000000000000000000000000000000000000000000000600052604160045260246000fd5b604051610160810167ffffffffffffffff811182821017156136d5576136d5613682565b60405290565b6040516101a0810167ffffffffffffffff811182821017156136d5576136d5613682565b604051601f82017fffffffffffffffffffffffffffffffffffffffffffffffffffffffffffffffe016810167ffffffffffffffff8111828210171561374657613746613682565b604052919050565b600067ffffffffffffffff82111561376857613768613682565b50601f017fffffffffffffffffffffffffffffffffffffffffffffffffffffffffffffffe01660200190565b600082601f8301126137a557600080fd5b81356137b86137b38261374e565b6136ff565b8181528460208386010111156137cd57600080fd5b816020850160208301376000918101602001919091529392505050565b6000602082840312156137fc57600080fd5b813567ffffffffffffffff8082111561381457600080fd5b90830190610160828603121561382957600080fd5b6138316136b1565b82358281111561384057600080fd5b61384c87828601613794565b82525060208301358281111561386157600080fd5b61386d87828601613794565b60208301525060408301358281111561388557600080fd5b61389187828601613794565b6040830152506060830135828111156138a957600080fd5b6138b587828601613794565b6060830152506080830135828111156138cd57600080fd5b6138d987828601613794565b60808301525060a0830135828111156138f157600080fd5b6138fd87828601613794565b60a08301525060c08301358281111561391557600080fd5b61392187828601613794565b60c08301525060e08301358281111561393957600080fd5b61394587828601613794565b60e083015250610100808401358381111561395f57600080fd5b61396b88828701613794565b918301919091525061012083810135908201526101409283013592810192909252509392505050565b73ffffffffffffffffffffffffffffffffffffffff811681146118c157600080fd5b6000602082840312156139c857600080fd5b8135612f4e81613994565b600080604083850312156139e657600080fd5b82356139f181613994565b946020939093013593505050565b600060208284031215613a1157600080fd5b813567ffffffffffffffff811115613a2857600080fd5b61179a84828501613794565b60006020808385031215613a4757600080fd5b823567ffffffffffffffff80821115613a5f57600080fd5b818501915085601f830112613a7357600080fd5b813581811115613a8557613a85613682565b8060051b613a948582016136ff565b9182528381018501918581019089841115613aae57600080fd5b86860192505b83831015613aea57823585811115613acc5760008081fd5b613ada8b89838a0101613794565b8352509186019190860190613ab4565b9998505050505050505050565b6000602080830181845280855180835260408601915060408160051b870101925083870160005b82811015613b6a577fffffffffffffffffffffffffffffffffffffffffffffffffffffffffffffffc0888603018452613b58858351613625565b94509285019290850190600101613b1e565b5092979650505050505050565b600060208284031215613b8957600080fd5b5035919050565b6cffffffffffffffffffffffffff811681146118c157600080fd5b62ffffff811681146118c157600080fd5b60008060408385031215613bcf57600080fd5b8235613bda81613b90565b91506020830135613bea81613bab565b809150509250929050565b600181811c90821680613c0957607f821691505b60208210810361199d577f4e487b7100000000000000000000000000000000000000000000000000000000600052602260045260246000fd5b600082601f830112613c5357600080fd5b8151613c616137b38261374e565b818152846020838601011115613c7657600080fd5b61179a8260208301602087016135f5565b600060208284031215613c9957600080fd5b815167ffffffffffffffff811115613cb057600080fd5b61179a84828501613c42565b7f4e487b7100000000000000000000000000000000000000000000000000000000600052601160045260246000fd5b6000817fffffffffffffffffffffffffffffffffffffffffffffffffffffffffffffffff0483118215151615613d2357613d23613cbc565b500290565b60008219821115613d3b57613d3b613cbc565b500190565b600082821015613d5257613d52613cbc565b500390565b600082613d8d577f4e487b7100000000000000000000000000000000000000000000000000000000600052601260045260246000fd5b500490565b805164ffffffffff811681146126d857600080fd5b805163ffffffff811681146126d857600080fd5b80516126d881613bab565b80516126d881613994565b600060408284031215613de357600080fd5b6040516040810181811067ffffffffffffffff82111715613e0657613e06613682565b80604052508091508251613e1981613b90565b81526020830151613e2981613bab565b6020919091015292915050565b600060208284031215613e4857600080fd5b815167ffffffffffffffff80821115613e6057600080fd5b908301906101c08286031215613e7557600080fd5b613e7d6136db565b825182811115613e8c57600080fd5b613e9887828601613c42565b825250602083015182811115613ead57600080fd5b613eb987828601613c42565b602083015250604083015182811115613ed157600080fd5b613edd87828601613c42565b604083015250606083015182811115613ef557600080fd5b613f0187828601613c42565b606083015250608083015182811115613f1957600080fd5b613f2587828601613c42565b608083015250613f3760a08401613d92565b60a0820152613f4860c08401613da7565b60c0820152613f5960e08401613dbb565b60e0820152610100613f6c818501613dc6565b90820152610120613f7e848201613dc6565b90820152610140613f90848201613dc6565b908201526101608381015183811115613fa857600080fd5b613fb488828701613c42565b8284015250506101809150613fcb86838501613dd1565b91810191909152949350505050565b600063ffffffff80831681851681830481118215151615613ffd57613ffd613cbc565b02949350505050565b600064ffffffffff80831681851680830382111561402657614026613cbc565b01949350505050565b7f4e487b7100000000000000000000000000000000000000000000000000000000600052603260045260246000fd5b600081516140708185602086016135f5565b9290920192915050565b6000835161408c8184602088016135f5565b60609390931b7fffffffffffffffffffffffffffffffffffffffff000000000000000000000000169190920190815260140192915050565b60007fffffffffffffffffffffffffffffffffffffffffffffffffffffffffffffffff82036140f5576140f5613cbc565b5060010190565b60006020828403121561410e57600080fd5b81518015158114612f4e57600080fd5b60006020828403121561413057600080fd5b5051919050565b60408152600061414a6040830185613625565b82810360208401526120138185613625565b6000825161416e8184602087016135f5565b9190910192915050565b7f2f000000000000000000000000000000000000000000000000000000000000008152600082516141b08160018501602087016135f5565b9190910160010192915050565b7f7b226e616d65223a2022000000000000000000000000000000000000000000008152600088516141f581600a850160208d016135f5565b7f2000000000000000000000000000000000000000000000000000000000000000600a91840191820152885161423281600b840160208d016135f5565b885191019061424881600b840160208c016135f5565b7f222c20226465736372697074696f6e223a202200000000000000000000000000600b9290910191820152865161428681601e840160208b016135f5565b7f222c202265787465726e616c5f75726c223a2022000000000000000000000000601e929091019182015285516142c4816032840160208a016135f5565b61433461432e6143056142ff6032858701017f222c2022696d616765223a2022000000000000000000000000000000000000008152600d0190565b8961405e565b7f222c2022656e637279707465645f6d656469615f75726c223a202200000000008152601b0190565b8661405e565b9b9a5050505050505050505050565b7f222c202264656372797074696f6e5f6b6579223a20220000000000000000000081526000875161437b816016850160208c016135f5565b7f222c202268617368223a2022000000000000000000000000000000000000000060169184019182015287516143b8816022840160208c016135f5565b7f222c20226465637279707465645f6d656469615f75726c223a202200000000006022929091019182015286516143f681603d840160208b016135f5565b7f222c2022616e696d6174696f6e5f75726c223a20220000000000000000000000603d92909101918201528551614434816052840160208a016135f5565b7f222c202270726f70657274696573223a207b226e756d626572223a200000000060529290910191820152845161447281606e8401602089016135f5565b6144d96144b06144aa606e848601017f2c20226e616d65223a20220000000000000000000000000000000000000000008152600b0190565b8761405e565b7f227d7d0000000000000000000000000000000000000000000000000000000000815260030190565b9a9950505050505050505050565b600083516144f98184602088016135f5565b8351908301906140268183602088016135f5565b7f646174613a6170706c69636174696f6e2f6a736f6e3b6261736536342c00000081526000825161454581601d8501602087016135f5565b91909101601d019291505056fe4142434445464748494a4b4c4d4e4f505152535455565758595a6162636465666768696a6b6c6d6e6f707172737475767778797a303132333435363738392b2f416464726573733a206c6f772d6c6576656c2064656c65676174652063616c6c206661696c6564a164736f6c634300080d000a",
  "devdoc": {
    "details": "This contract subscribes to the following HolographERC721 events:       - customContractURI       Do not enable or subscribe to any other events unless you modified the source code for them.",
    "kind": "dev",
    "methods": {
      "constructor": {
        "details": "Constructor is left empty and init is used instead"
      },
      "currentTheoricalMaxSupply()": {
        "details": "The max supply is calculated based on the current time and the mint interval, by subtracting      the elapsed_mint intervals from the initial max supply.      - The max supply is the initial max supply if the current time is less than the start date.      - The max supply is zero if the current time is greater than the end date.      - The max supply is decreased by one for each mint interval that has passed.      - The max supply is calculated by subtracting the intervals elapsed from the initial max supply.",
        "returns": {
          "_0": "max supply"
        }
      },
      "init(bytes)": {
        "details": "This function is called by the deployer/the factory when creating a contract",
        "params": {
          "initPayload": "abi encoded payload (CountdownERC721Initializer struct) to use for contract initilaization"
        }
      },
      "isAdmin(address)": {
        "details": "Getter for admin role associated with the contract to handle metadata",
        "returns": {
          "_0": "boolean if address is admin"
        }
      },
      "mintTo(address,uint256)": {
        "params": {
          "quantity": "quantity to mint",
          "recipient": "recipient to mint to"
        }
      },
      "mintedPerAddress(address)": {
        "details": "Number of NFTs the user has minted per address",
        "params": {
          "minter": "to get counts for"
        }
      },
      "purchase(uint256)": {
        "details": "This allows the user to purchase/mint a edition at the given price in the contract.",
        "params": {
          "quantity": "quantity to purchase"
        }
      },
      "saleDetails()": {
        "details": "Returns the sale details for the contract",
        "returns": {
          "_0": "SaleDetails sale information details"
        }
      },
      "setContractURI(string)": {
        "details": "Caller should be authorized to setup contractURI, e.g. contract admin.                  See {_canSetContractURI}.                  Emits {ContractURIUpdated Event}.",
        "params": {
          "_uri": "keccak256 hash of the role. e.g. keccak256(\"TRANSFER_ROLE\")"
        }
      },
      "setFundsRecipient(address)": {
        "params": {
          "newRecipientAddress": "new funds recipient address"
        }
      },
      "setMetadataParams((string,string,string,string,string,string,string,string,string,uint256,uint256))": {
        "details": "Returns the metadata params for the contract"
      },
      "setMinter(address)": {
        "params": {
          "minterAddress": "new minter address"
        }
      },
      "setSaleConfiguration(uint104,uint24)": {
        "details": "This sets the sales configuration",
        "params": {
          "maxSalePurchasePerAddress": "Max # of purchases (public) per address allowed",
          "publicSalePrice": "New public sale price"
        }
      },
      "tokenURI(uint256)": {
        "details": "Returns a base64 encoded metadata URI for a given tokenId.",
        "params": {
          "tokenId": "The ID of the token to get URI for"
        },
        "returns": {
          "_0": "Token URI"
        }
      },
      "version()": {
        "details": "Used for contract versioning and validation",
        "returns": {
          "_0": "version of the contract"
        }
      }
    },
    "stateVariables": {
      "ANIMATION_URI": {
        "details": "This storage variable is set during the init and can be updated by the owner"
      },
      "DECRYPTED_MEDIA_URI": {
        "details": "This storage variable is set during the init and can be updated by the owner"
      },
      "DECRYPTION_KEY": {
        "details": "This storage variable is set during the init and can be updated by the owner"
      },
      "DESCRIPTION": {
        "details": "This storage variable is set only once in the init and can be considered as immutable"
      },
      "ENCRYPTED_MEDIA_URL": {
        "details": "This storage variable is set during the init and can be updated by the owner"
      },
      "EXTERNAL_URL": {
        "details": "This storage variable is set during the init and can be updated by the owner"
      },
      "FUNDS_RECIPIENT": {
        "details": "This storage variable is set only once in the init and can be considered as immutable"
      },
      "HASH": {
        "details": "This storage variable is set during the init and can be updated by the owner"
      },
      "IMAGE_URI": {
        "details": "This storage variable is set during the init and can be updated by the owner"
      },
      "INITIAL_END_DATE": {
        "details": "This storage variable is set only once in the init and can be considered as immutable"
      },
      "INITIAL_MAX_SUPPLY": {
        "details": "This storage variable is set only once in the init and can be considered as immutable"
      },
      "MINT_INTERVAL": {
        "details": "This storage variable is set only once in the init and can be considered as immutable"
      },
      "START_DATE": {
        "details": "This storage variable is set only once in the init and can be considered as immutable"
      },
      "STATIC_GAS_LIMIT": {
        "details": "Gas limit for transferring funds"
      },
      "_currentTokenId": {
        "details": "Internal reference used for minting incremental token ids."
      },
      "dropsPriceOracle": {
        "details": "Address of the price oracle proxy"
      },
      "minter": {
        "details": "This account tokens on behalf of those that purchase them offchain"
      },
      "totalMintsByAddress": {
        "details": "Mapping for the total mints by address"
      }
    },
    "version": 1
  },
  "userdoc": {
    "errors": {
      "Access_MissingRoleOrAdmin(bytes32)": [
        {
          "notice": "Missing the given role or admin access"
        }
      ],
      "Access_OnlyAdmin()": [
        {
          "notice": "Only admin can access this function"
        }
      ],
      "Access_OnlyMinter()": [
        {
          "notice": "Only minter can access this function"
        }
      ],
      "Access_WithdrawNotAllowed()": [
        {
          "notice": "Withdraw is not allowed by this user"
        }
      ],
      "Admin_InvalidUpgradeAddress(address)": [
        {
          "notice": "Invalid admin upgrade address"
        }
      ],
      "Admin_UnableToFinalizeNotOpenEdition()": [
        {
          "notice": "Unable to finalize an edition not marked as open (size set to uint64_max_value)"
        }
      ],
      "ExternalMetadataRenderer_CallFailed()": [
        {
          "notice": "Call to external metadata renderer failed."
        }
      ],
      "FeePaymentFailed()": [
        {
          "notice": "Fee payout failed"
        }
      ],
      "LazyMint_AlreadyInitialized()": [
        {
          "notice": "Lazy mint initialization failed"
        }
      ],
      "MintFee_FundsSendFailure()": [
        {
          "notice": "Mint fee send failure"
        }
      ],
      "Mint_SoldOut()": [
        {
          "notice": "NFT sold out"
        }
      ],
      "NotInitialized()": [
        {
          "notice": "Contract is not initialized yet"
        }
      ],
      "Purchase_CountdownCompleted()": [
        {
          "notice": "The countdown has been completed"
        }
      ],
      "Purchase_TooManyForAddress()": [
        {
          "notice": "Too many purchase for address"
        }
      ],
      "Purchase_WrongPrice(uint256)": [
        {
          "notice": "Wrong price for purchase"
        }
      ],
      "Sale_Inactive()": [
        {
          "notice": "Sale is inactive"
        }
      ],
      "Setup_RoyaltyPercentageTooHigh(uint16)": [
        {
          "notice": "Royalty percentage too high"
        }
      ],
      "Withdraw_FundsSendFailure()": [
        {
          "notice": "Cannot withdraw funds due to ETH send failure."
        }
      ]
    },
    "events": {
      "FundsRecipientChanged(address,address)": {
        "notice": "Event emitted when the funds recipient is changed"
      },
      "FundsWithdrawn(address,address,uint256)": {
        "notice": "Event emitted when the funds are withdrawn from the minting contract"
      },
      "MintFeePayout(uint256,address,bool)": {
        "notice": "Event emitted for mint fee payout"
      },
      "NFTMinted(address,uint256,uint256)": {
        "notice": "Event emitted when an nfs is minted"
      },
      "OpenMintFinalized(address,uint256)": {
        "notice": "Event emitted when an open mint is finalized and further minting is closed forever on the contract."
      },
      "Sale(address,uint256,uint256,uint256)": {
        "notice": "Event emitted for each sale"
      },
      "SalesConfigChanged(address)": {
        "notice": "Sales configuration has been changed"
      }
    },
    "kind": "user",
    "methods": {
      "ANIMATION_URI()": {
        "notice": "Getter for the base animation URI"
      },
      "DECRYPTED_MEDIA_URI()": {
        "notice": "Getter for the decrypted media URI"
      },
      "DECRYPTION_KEY()": {
        "notice": "Getter for the decryption key"
      },
      "DESCRIPTION()": {
        "notice": "Getter for the description"
      },
      "ENCRYPTED_MEDIA_URL()": {
        "notice": "Getter for the encrypted media URI"
      },
      "END_DATE()": {
        "notice": "Getter for the end date"
      },
      "EXTERNAL_URL()": {
        "notice": "Getter for the external url"
      },
      "HASH()": {
        "notice": "Getter for the hash"
      },
      "IMAGE_URI()": {
        "notice": "Getter for the base image URI"
      },
      "INITIAL_END_DATE()": {
        "notice": "Getter for the initial end date"
      },
      "INITIAL_MAX_SUPPLY()": {
        "notice": "Getter for the initial max supply"
      },
      "MINT_INTERVAL()": {
        "notice": "Getter for the mint interval"
      },
      "START_DATE()": {
        "notice": "Getter for the purchase start date"
      },
      "contractURI()": {
        "notice": "Returns the contract metadata URI."
      },
      "currentTheoricalMaxSupply()": {
        "notice": "Returns the theoretical maximum supply for the current time"
      },
      "getNativePrice()": {
        "notice": "Convert USD price to current price in native Ether units"
      },
      "init(bytes)": {
        "notice": "Used internally to initialize the contract instead of through a constructor"
      },
      "mintTo(address,uint256)": {
        "notice": "Minter account mints tokens to a recipient that has paid offchain"
      },
      "minter()": {
        "notice": "Getter for the minter"
      },
      "name()": {
        "notice": "Returns the name of the token through the holographer entrypoint"
      },
      "saleDetails()": {
        "notice": "Sale details"
      },
      "salesConfig()": {
        "notice": "Sales configuration"
      },
      "setContractURI(string)": {
        "notice": "Lets a contract admin set the URI for contract-level metadata."
      },
      "setFundsRecipient(address)": {
        "notice": "Set a different funds recipient"
      },
      "setMetadataParams((string,string,string,string,string,string,string,string,string,uint256,uint256))": {
        "notice": "This only sets the subset of metadata params that are settable by the owner"
      },
      "setMinter(address)": {
        "notice": "Set the minter address"
      },
      "totalMinted()": {
        "notice": "Returns the total amount of tokens minted in the contract."
      },
      "version()": {
        "notice": "Returns the version of the contract"
      },
      "withdraw()": {
        "notice": "This withdraws native tokens from the contract to the contract owner."
      }
    },
    "version": 1
  },
  "storageLayout": {
    "storage": [
      {
        "astId": 9,
        "contract": "src/token/CountdownERC721.sol:CountdownERC721",
        "label": "contractURI",
        "offset": 0,
        "slot": "0",
        "type": "t_string_storage"
      },
      {
        "astId": 3385,
        "contract": "src/token/CountdownERC721.sol:CountdownERC721",
        "label": "START_DATE",
        "offset": 0,
        "slot": "1",
        "type": "t_uint256"
      },
      {
        "astId": 3388,
        "contract": "src/token/CountdownERC721.sol:CountdownERC721",
        "label": "INITIAL_MAX_SUPPLY",
        "offset": 0,
        "slot": "2",
        "type": "t_uint256"
      },
      {
        "astId": 3391,
        "contract": "src/token/CountdownERC721.sol:CountdownERC721",
        "label": "MINT_INTERVAL",
        "offset": 0,
        "slot": "3",
        "type": "t_uint256"
      },
      {
        "astId": 3394,
        "contract": "src/token/CountdownERC721.sol:CountdownERC721",
        "label": "FUNDS_RECIPIENT",
        "offset": 0,
        "slot": "4",
        "type": "t_address_payable"
      },
      {
        "astId": 3397,
        "contract": "src/token/CountdownERC721.sol:CountdownERC721",
        "label": "INITIAL_END_DATE",
        "offset": 0,
        "slot": "5",
        "type": "t_uint256"
      },
      {
        "astId": 3400,
        "contract": "src/token/CountdownERC721.sol:CountdownERC721",
        "label": "END_DATE",
        "offset": 0,
        "slot": "6",
        "type": "t_uint256"
      },
      {
        "astId": 3403,
        "contract": "src/token/CountdownERC721.sol:CountdownERC721",
        "label": "minter",
        "offset": 0,
        "slot": "7",
        "type": "t_address"
      },
      {
        "astId": 3406,
        "contract": "src/token/CountdownERC721.sol:CountdownERC721",
        "label": "DESCRIPTION",
        "offset": 0,
        "slot": "8",
        "type": "t_string_storage"
      },
      {
        "astId": 3409,
        "contract": "src/token/CountdownERC721.sol:CountdownERC721",
        "label": "IMAGE_URI",
        "offset": 0,
        "slot": "9",
        "type": "t_string_storage"
      },
      {
        "astId": 3412,
        "contract": "src/token/CountdownERC721.sol:CountdownERC721",
        "label": "ANIMATION_URI",
        "offset": 0,
        "slot": "10",
        "type": "t_string_storage"
      },
      {
        "astId": 3415,
        "contract": "src/token/CountdownERC721.sol:CountdownERC721",
        "label": "EXTERNAL_URL",
        "offset": 0,
        "slot": "11",
        "type": "t_string_storage"
      },
      {
        "astId": 3418,
        "contract": "src/token/CountdownERC721.sol:CountdownERC721",
        "label": "ENCRYPTED_MEDIA_URL",
        "offset": 0,
        "slot": "12",
        "type": "t_string_storage"
      },
      {
        "astId": 3421,
        "contract": "src/token/CountdownERC721.sol:CountdownERC721",
        "label": "DECRYPTION_KEY",
        "offset": 0,
        "slot": "13",
        "type": "t_string_storage"
      },
      {
        "astId": 3424,
        "contract": "src/token/CountdownERC721.sol:CountdownERC721",
        "label": "HASH",
        "offset": 0,
        "slot": "14",
        "type": "t_string_storage"
      },
      {
        "astId": 3427,
        "contract": "src/token/CountdownERC721.sol:CountdownERC721",
        "label": "DECRYPTED_MEDIA_URI",
        "offset": 0,
        "slot": "15",
        "type": "t_string_storage"
      },
      {
        "astId": 3437,
        "contract": "src/token/CountdownERC721.sol:CountdownERC721",
        "label": "_currentTokenId",
        "offset": 0,
        "slot": "16",
        "type": "t_uint224"
      },
      {
        "astId": 3445,
        "contract": "src/token/CountdownERC721.sol:CountdownERC721",
        "label": "salesConfig",
        "offset": 0,
        "slot": "17",
        "type": "t_struct(CustomERC721SalesConfiguration)3307_storage"
      },
      {
        "astId": 3450,
        "contract": "src/token/CountdownERC721.sol:CountdownERC721",
        "label": "totalMintsByAddress",
        "offset": 0,
        "slot": "18",
        "type": "t_mapping(t_address,t_uint256)"
      }
    ],
    "types": {
      "t_address": {
        "encoding": "inplace",
        "label": "address",
        "numberOfBytes": "20"
      },
      "t_address_payable": {
        "encoding": "inplace",
        "label": "address payable",
        "numberOfBytes": "20"
      },
      "t_mapping(t_address,t_uint256)": {
        "encoding": "mapping",
        "key": "t_address",
        "label": "mapping(address => uint256)",
        "numberOfBytes": "32",
        "value": "t_uint256"
      },
      "t_string_storage": {
        "encoding": "bytes",
        "label": "string",
        "numberOfBytes": "32"
      },
      "t_struct(CustomERC721SalesConfiguration)3307_storage": {
        "encoding": "inplace",
        "label": "struct CustomERC721SalesConfiguration",
        "members": [
          {
            "astId": 3303,
            "contract": "src/token/CountdownERC721.sol:CountdownERC721",
            "label": "publicSalePrice",
            "offset": 0,
            "slot": "0",
            "type": "t_uint104"
          },
          {
            "astId": 3306,
            "contract": "src/token/CountdownERC721.sol:CountdownERC721",
            "label": "maxSalePurchasePerAddress",
            "offset": 13,
            "slot": "0",
            "type": "t_uint24"
          }
        ],
        "numberOfBytes": "32"
      },
      "t_uint104": {
        "encoding": "inplace",
        "label": "uint104",
        "numberOfBytes": "13"
      },
      "t_uint224": {
        "encoding": "inplace",
        "label": "uint224",
        "numberOfBytes": "28"
      },
      "t_uint24": {
        "encoding": "inplace",
        "label": "uint24",
        "numberOfBytes": "3"
      },
      "t_uint256": {
        "encoding": "inplace",
        "label": "uint256",
        "numberOfBytes": "32"
      }
    }
  }
}