{
  "address": "0x45949B99358779d09B99F87f2D049A3611b13e00",
  "abi": [
    {
      "inputs": [],
      "stateMutability": "nonpayable",
      "type": "constructor"
    },
    {
      "inputs": [
        {
          "internalType": "bytes32",
          "name": "role",
          "type": "bytes32"
        }
      ],
      "name": "Access_MissingRoleOrAdmin",
      "type": "error"
    },
    {
      "inputs": [],
      "name": "Access_OnlyAdmin",
      "type": "error"
    },
    {
      "inputs": [],
      "name": "Access_OnlyMinter",
      "type": "error"
    },
    {
      "inputs": [],
      "name": "Access_WithdrawNotAllowed",
      "type": "error"
    },
    {
      "inputs": [
        {
          "internalType": "address",
          "name": "proposedAddress",
          "type": "address"
        }
      ],
      "name": "Admin_InvalidUpgradeAddress",
      "type": "error"
    },
    {
      "inputs": [],
      "name": "Admin_UnableToFinalizeNotOpenEdition",
      "type": "error"
    },
    {
      "inputs": [
        {
          "internalType": "uint128",
          "name": "countdownEnd",
          "type": "uint128"
        },
        {
          "internalType": "uint128",
          "name": "mintTimeCost",
          "type": "uint128"
        }
      ],
      "name": "CountdownEndMustBeDivisibleByMintTimeCost",
      "type": "error"
    },
    {
      "inputs": [],
      "name": "ExternalMetadataRenderer_CallFailed",
      "type": "error"
    },
    {
      "inputs": [],
      "name": "FeePaymentFailed",
      "type": "error"
    },
    {
      "inputs": [],
      "name": "LazyMint_AlreadyInitialized",
      "type": "error"
    },
    {
      "inputs": [],
      "name": "MintFee_FundsSendFailure",
      "type": "error"
    },
    {
      "inputs": [],
      "name": "Mint_SoldOut",
      "type": "error"
    },
    {
      "inputs": [],
      "name": "NotInitialized",
      "type": "error"
    },
    {
      "inputs": [],
      "name": "Purchase_CountdownCompleted",
      "type": "error"
    },
    {
      "inputs": [],
      "name": "Purchase_TooManyForAddress",
      "type": "error"
    },
    {
      "inputs": [
        {
          "internalType": "uint256",
          "name": "correctPrice",
          "type": "uint256"
        }
      ],
      "name": "Purchase_WrongPrice",
      "type": "error"
    },
    {
      "inputs": [],
      "name": "Sale_Inactive",
      "type": "error"
    },
    {
      "inputs": [
        {
          "internalType": "uint16",
          "name": "maxRoyaltyBPS",
          "type": "uint16"
        }
      ],
      "name": "Setup_RoyaltyPercentageTooHigh",
      "type": "error"
    },
    {
      "inputs": [],
      "name": "Withdraw_FundsSendFailure",
      "type": "error"
    },
    {
      "anonymous": false,
      "inputs": [
        {
          "indexed": false,
          "internalType": "string",
          "name": "prevURI",
          "type": "string"
        },
        {
          "indexed": false,
          "internalType": "string",
          "name": "newURI",
          "type": "string"
        }
      ],
      "name": "ContractURIUpdated",
      "type": "event"
    },
    {
      "anonymous": false,
      "inputs": [
        {
          "indexed": true,
          "internalType": "address",
          "name": "source",
          "type": "address"
        },
        {
          "indexed": false,
          "internalType": "uint256",
          "name": "amount",
          "type": "uint256"
        }
      ],
      "name": "FundsReceived",
      "type": "event"
    },
    {
      "anonymous": false,
      "inputs": [
        {
          "indexed": true,
          "internalType": "address",
          "name": "newAddress",
          "type": "address"
        },
        {
          "indexed": true,
          "internalType": "address",
          "name": "changedBy",
          "type": "address"
        }
      ],
      "name": "FundsRecipientChanged",
      "type": "event"
    },
    {
      "anonymous": false,
      "inputs": [
        {
          "indexed": true,
          "internalType": "address",
          "name": "withdrawnBy",
          "type": "address"
        },
        {
          "indexed": true,
          "internalType": "address",
          "name": "withdrawnTo",
          "type": "address"
        },
        {
          "indexed": false,
          "internalType": "uint256",
          "name": "amount",
          "type": "uint256"
        }
      ],
      "name": "FundsWithdrawn",
      "type": "event"
    },
    {
      "anonymous": false,
      "inputs": [
        {
          "indexed": false,
          "internalType": "uint256",
          "name": "mintFeeAmount",
          "type": "uint256"
        },
        {
          "indexed": false,
          "internalType": "address",
          "name": "mintFeeRecipient",
          "type": "address"
        },
        {
          "indexed": false,
          "internalType": "bool",
          "name": "success",
          "type": "bool"
        }
      ],
      "name": "MintFeePayout",
      "type": "event"
    },
    {
      "anonymous": false,
      "inputs": [
        {
          "indexed": true,
          "internalType": "address",
          "name": "recipient",
          "type": "address"
        },
        {
          "indexed": true,
          "internalType": "uint256",
          "name": "tokenId",
          "type": "uint256"
        },
        {
          "indexed": false,
          "internalType": "uint256",
          "name": "id",
          "type": "uint256"
        }
      ],
      "name": "NFTMinted",
      "type": "event"
    },
    {
      "anonymous": false,
      "inputs": [
        {
          "indexed": true,
          "internalType": "address",
          "name": "sender",
          "type": "address"
        },
        {
          "indexed": false,
          "internalType": "uint256",
          "name": "numberOfMints",
          "type": "uint256"
        }
      ],
      "name": "OpenMintFinalized",
      "type": "event"
    },
    {
      "anonymous": false,
      "inputs": [
        {
          "indexed": true,
          "internalType": "address",
          "name": "to",
          "type": "address"
        },
        {
          "indexed": true,
          "internalType": "uint256",
          "name": "quantity",
          "type": "uint256"
        },
        {
          "indexed": true,
          "internalType": "uint256",
          "name": "pricePerToken",
          "type": "uint256"
        },
        {
          "indexed": false,
          "internalType": "uint256",
          "name": "firstPurchasedTokenId",
          "type": "uint256"
        }
      ],
      "name": "Sale",
      "type": "event"
    },
    {
      "anonymous": false,
      "inputs": [
        {
          "indexed": true,
          "internalType": "address",
          "name": "changedBy",
          "type": "address"
        }
      ],
      "name": "SalesConfigChanged",
      "type": "event"
    },
    {
      "stateMutability": "payable",
      "type": "fallback"
    },
    {
      "inputs": [],
      "name": "DESCRIPTION",
      "outputs": [
        {
          "internalType": "string",
          "name": "",
          "type": "string"
        }
      ],
      "stateMutability": "view",
      "type": "function"
    },
    {
      "inputs": [],
      "name": "END_DATE",
      "outputs": [
        {
          "internalType": "uint256",
          "name": "",
          "type": "uint256"
        }
      ],
      "stateMutability": "view",
      "type": "function"
    },
    {
      "inputs": [],
      "name": "INITIAL_END_DATE",
      "outputs": [
        {
          "internalType": "uint256",
          "name": "",
          "type": "uint256"
        }
      ],
      "stateMutability": "view",
      "type": "function"
    },
    {
      "inputs": [],
      "name": "INITIAL_MAX_SUPPLY",
      "outputs": [
        {
          "internalType": "uint256",
          "name": "",
          "type": "uint256"
        }
      ],
      "stateMutability": "view",
      "type": "function"
    },
    {
      "inputs": [],
      "name": "MINT_INTERVAL",
      "outputs": [
        {
          "internalType": "uint256",
          "name": "",
          "type": "uint256"
        }
      ],
      "stateMutability": "view",
      "type": "function"
    },
    {
      "inputs": [],
      "name": "START_DATE",
      "outputs": [
        {
          "internalType": "uint256",
          "name": "",
          "type": "uint256"
        }
      ],
      "stateMutability": "view",
      "type": "function"
    },
    {
      "inputs": [],
      "name": "contractURI",
      "outputs": [
        {
          "internalType": "string",
          "name": "",
          "type": "string"
        }
      ],
      "stateMutability": "view",
      "type": "function"
    },
    {
      "inputs": [],
      "name": "currentTheoricalMaxSupply",
      "outputs": [
        {
          "internalType": "uint256",
          "name": "",
          "type": "uint256"
        }
      ],
      "stateMutability": "view",
      "type": "function"
    },
    {
      "inputs": [],
      "name": "dropsPriceOracle",
      "outputs": [
        {
          "internalType": "contract IDropsPriceOracle",
          "name": "",
          "type": "address"
        }
      ],
      "stateMutability": "view",
      "type": "function"
    },
    {
      "inputs": [],
      "name": "getNativePrice",
      "outputs": [
        {
          "internalType": "uint256",
          "name": "",
          "type": "uint256"
        }
      ],
      "stateMutability": "view",
      "type": "function"
    },
    {
      "inputs": [
        {
          "internalType": "bytes",
          "name": "initPayload",
          "type": "bytes"
        }
      ],
      "name": "init",
      "outputs": [
        {
          "internalType": "bytes4",
          "name": "",
          "type": "bytes4"
        }
      ],
      "stateMutability": "nonpayable",
      "type": "function"
    },
    {
      "inputs": [
        {
          "internalType": "address",
          "name": "user",
          "type": "address"
        }
      ],
      "name": "isAdmin",
      "outputs": [
        {
          "internalType": "bool",
          "name": "",
          "type": "bool"
        }
      ],
      "stateMutability": "view",
      "type": "function"
    },
    {
      "inputs": [
        {
          "internalType": "address",
          "name": "wallet",
          "type": "address"
        }
      ],
      "name": "isOwner",
      "outputs": [
        {
          "internalType": "bool",
          "name": "",
          "type": "bool"
        }
      ],
      "stateMutability": "view",
      "type": "function"
    },
    {
      "inputs": [],
      "name": "isOwner",
      "outputs": [
        {
          "internalType": "bool",
          "name": "",
          "type": "bool"
        }
      ],
      "stateMutability": "view",
      "type": "function"
    },
    {
      "inputs": [
        {
          "internalType": "address",
          "name": "recipient",
          "type": "address"
        },
        {
          "internalType": "uint256",
          "name": "quantity",
          "type": "uint256"
        }
      ],
      "name": "mintTo",
      "outputs": [
        {
          "internalType": "uint256",
          "name": "",
          "type": "uint256"
        }
      ],
      "stateMutability": "nonpayable",
      "type": "function"
    },
    {
      "inputs": [
        {
          "internalType": "address",
          "name": "minter",
          "type": "address"
        }
      ],
      "name": "mintedPerAddress",
      "outputs": [
        {
          "components": [
            {
              "internalType": "uint256",
              "name": "totalMints",
              "type": "uint256"
            },
            {
              "internalType": "uint256",
              "name": "presaleMints",
              "type": "uint256"
            },
            {
              "internalType": "uint256",
              "name": "publicMints",
              "type": "uint256"
            }
          ],
          "internalType": "struct AddressMintDetails",
          "name": "",
          "type": "tuple"
        }
      ],
      "stateMutability": "view",
      "type": "function"
    },
    {
      "inputs": [],
      "name": "minter",
      "outputs": [
        {
          "internalType": "address",
          "name": "",
          "type": "address"
        }
      ],
      "stateMutability": "view",
      "type": "function"
    },
    {
      "inputs": [
        {
          "internalType": "bytes[]",
          "name": "data",
          "type": "bytes[]"
        }
      ],
      "name": "multicall",
      "outputs": [
        {
          "internalType": "bytes[]",
          "name": "results",
          "type": "bytes[]"
        }
      ],
      "stateMutability": "nonpayable",
      "type": "function"
    },
    {
      "inputs": [],
      "name": "name",
      "outputs": [
        {
          "internalType": "string",
          "name": "",
          "type": "string"
        }
      ],
      "stateMutability": "view",
      "type": "function"
    },
    {
      "inputs": [],
      "name": "owner",
      "outputs": [
        {
          "internalType": "address",
          "name": "",
          "type": "address"
        }
      ],
      "stateMutability": "view",
      "type": "function"
    },
    {
      "inputs": [
        {
          "internalType": "uint256",
          "name": "quantity",
          "type": "uint256"
        }
      ],
      "name": "purchase",
      "outputs": [
        {
          "internalType": "uint256",
          "name": "",
          "type": "uint256"
        }
      ],
      "stateMutability": "payable",
      "type": "function"
    },
    {
      "inputs": [],
      "name": "saleDetails",
      "outputs": [
        {
          "components": [
            {
              "internalType": "bool",
              "name": "publicSaleActive",
              "type": "bool"
            },
            {
              "internalType": "uint256",
              "name": "publicSalePrice",
              "type": "uint256"
            },
            {
              "internalType": "uint256",
              "name": "publicSaleStart",
              "type": "uint256"
            },
            {
              "internalType": "uint256",
              "name": "maxSalePurchasePerAddress",
              "type": "uint256"
            },
            {
              "internalType": "uint256",
              "name": "totalMinted",
              "type": "uint256"
            },
            {
              "internalType": "uint256",
              "name": "maxSupply",
              "type": "uint256"
            }
          ],
          "internalType": "struct CustomERC721SaleDetails",
          "name": "",
          "type": "tuple"
        }
      ],
      "stateMutability": "view",
      "type": "function"
    },
    {
      "inputs": [],
      "name": "salesConfig",
      "outputs": [
        {
          "internalType": "uint104",
          "name": "publicSalePrice",
          "type": "uint104"
        },
        {
          "internalType": "uint24",
          "name": "maxSalePurchasePerAddress",
          "type": "uint24"
        }
      ],
      "stateMutability": "view",
      "type": "function"
    },
    {
      "inputs": [
        {
          "internalType": "string",
          "name": "_uri",
          "type": "string"
        }
      ],
      "name": "setContractURI",
      "outputs": [],
      "stateMutability": "nonpayable",
      "type": "function"
    },
    {
      "inputs": [
        {
          "internalType": "address payable",
          "name": "newRecipientAddress",
          "type": "address"
        }
      ],
      "name": "setFundsRecipient",
      "outputs": [],
      "stateMutability": "nonpayable",
      "type": "function"
    },
    {
      "inputs": [
        {
          "internalType": "address",
          "name": "minterAddress",
          "type": "address"
        }
      ],
      "name": "setMinter",
      "outputs": [],
      "stateMutability": "nonpayable",
      "type": "function"
    },
    {
      "inputs": [
        {
          "internalType": "uint104",
          "name": "publicSalePrice",
          "type": "uint104"
        },
        {
          "internalType": "uint24",
          "name": "maxSalePurchasePerAddress",
          "type": "uint24"
        }
      ],
      "name": "setSaleConfiguration",
      "outputs": [],
      "stateMutability": "nonpayable",
      "type": "function"
    },
    {
      "inputs": [
        {
          "internalType": "bytes4",
          "name": "interfaceId",
          "type": "bytes4"
        }
      ],
      "name": "supportsInterface",
      "outputs": [
        {
          "internalType": "bool",
          "name": "",
          "type": "bool"
        }
      ],
      "stateMutability": "pure",
      "type": "function"
    },
    {
      "inputs": [
        {
          "internalType": "uint256",
          "name": "tokenId",
          "type": "uint256"
        }
      ],
      "name": "tokenURI",
      "outputs": [
        {
          "internalType": "string",
          "name": "",
          "type": "string"
        }
      ],
      "stateMutability": "view",
      "type": "function"
    },
    {
      "inputs": [],
      "name": "totalMinted",
      "outputs": [
        {
          "internalType": "uint256",
          "name": "",
          "type": "uint256"
        }
      ],
      "stateMutability": "view",
      "type": "function"
    },
    {
      "inputs": [
        {
          "internalType": "address",
          "name": "",
          "type": "address"
        }
      ],
      "name": "totalMintsByAddress",
      "outputs": [
        {
          "internalType": "uint256",
          "name": "",
          "type": "uint256"
        }
      ],
      "stateMutability": "view",
      "type": "function"
    },
    {
      "inputs": [],
      "name": "version",
      "outputs": [
        {
          "internalType": "uint32",
          "name": "",
          "type": "uint32"
        }
      ],
      "stateMutability": "pure",
      "type": "function"
    },
    {
      "inputs": [],
      "name": "withdraw",
      "outputs": [],
      "stateMutability": "nonpayable",
      "type": "function"
    },
    {
      "stateMutability": "payable",
      "type": "receive"
    }
  ],
  "transactionHash": "0x274e51f6f08eccf01c4160f6dbeb72a797a3843fa7b5e563091dfdc5b0ecd77b",
  "args": [],
  "numDeployments": 1,
  "solcInputHash": "894406292eb6201e3305288a473d2a92",
  "bytecode": "0x608060405234801561001057600080fd5b50613e30806100206000396000f3fe6080604052600436106102025760003560e01c806354fd4d501161011d578063ac9650d8116100b0578063e8a3d4851161007f578063efef39a111610064578063efef39a114610780578063f1ae885614610793578063fca3b5aa146107a857610260565b8063e8a3d48514610755578063ed6163411461076a57610260565b8063ac9650d8146106a6578063c87b56dd146106d3578063cb0793bc146106f3578063d445b9781461071357610260565b80638f32d59b116100ec5780638f32d59b146106115780639123f01e14610626578063938e3d7b14610653578063a2309ff81461067357610260565b806354fd4d50146105a257806384e7e3d3146105be5780638cb163f4146105d45780638da5cb5b146105fc57610260565b80632f54bf6e11610195578063449a52f811610164578063449a52f814610505578063457509bf146105255780634ddf47d41461053b578063545599ff1461058c57610260565b80632f54bf6e146104575780633474a4a614610477578063372c6533146104da5780633ccfd60b146104f057610260565b806317430c9e116101d157806317430c9e146103985780631d2c0b38146103bb57806324d7806c146104225780632df667fb1461044257610260565b806301ffc9a71461028b57806306fdde0314610302578063075461721461032457806310a7eb5d1461037657610260565b366102605761020f6107c8565b73ffffffffffffffffffffffffffffffffffffffff167f8e47b87b0ef542cdfa1659c551d88bad38aa7f452d2bbb349ab7530dfec8be8f3460405161025691815260200190565b60405180910390a2005b6040517f46756e6374696f6e206e6f7420666f756e6400000000000000000000000000008152601481fd5b34801561029757600080fd5b506102ed6102a6366004612f82565b7fffffffff00000000000000000000000000000000000000000000000000000000167f19a31fdc000000000000000000000000000000000000000000000000000000001490565b60405190151581526020015b60405180910390f35b34801561030e57600080fd5b50610317610827565b6040516102f9919061303e565b34801561033057600080fd5b506008546103519073ffffffffffffffffffffffffffffffffffffffff1681565b60405173ffffffffffffffffffffffffffffffffffffffff90911681526020016102f9565b34801561038257600080fd5b50610396610391366004613073565b6108e6565b005b3480156103a457600080fd5b506103ad610aef565b6040519081526020016102f9565b3480156103c757600080fd5b50600b546103f9906cffffffffffffffffffffffffff8116906d0100000000000000000000000000900462ffffff1682565b604080516cffffffffffffffffffffffffff909316835262ffffff9091166020830152016102f9565b34801561042e57600080fd5b506102ed61043d366004613073565b610b0d565b34801561044e57600080fd5b506103ad610b6b565b34801561046357600080fd5b506102ed610472366004613073565b610bd9565b34801561048357600080fd5b5061048c610c38565b6040516102f99190600060c0820190508251151582526020830151602083015260408301516040830152606083015160608301526080830151608083015260a083015160a083015292915050565b3480156104e657600080fd5b506103ad60025481565b3480156104fc57600080fd5b50610396610d01565b34801561051157600080fd5b506103ad610520366004613090565b611012565b34801561053157600080fd5b506103ad60065481565b34801561054757600080fd5b5061055b610556366004613208565b611114565b6040517fffffffff0000000000000000000000000000000000000000000000000000000090911681526020016102f9565b34801561059857600080fd5b506103ad60075481565b3480156105ae57600080fd5b50604051600181526020016102f9565b3480156105ca57600080fd5b506103ad60045481565b3480156105e057600080fd5b5061035173ea7f4c52cbd4cf1036cdca8b16aca11f5b09cf6e81565b34801561060857600080fd5b506103516113c7565b34801561061d57600080fd5b506102ed6113f1565b34801561063257600080fd5b506103ad610641366004613073565b600c6020526000908152604090205481565b34801561065f57600080fd5b5061039661066e36600461323d565b611455565b34801561067f57600080fd5b506009547bffffffffffffffffffffffffffffffffffffffffffffffffffffffff166103ad565b3480156106b257600080fd5b506106c66106c1366004613286565b6114cf565b6040516102f99190613349565b3480156106df57600080fd5b506103176106ee3660046133c9565b6115ae565b3480156106ff57600080fd5b5061039661070e36600461340e565b611984565b34801561071f57600080fd5b5061073361072e366004613073565b611ae1565b60408051825181526020808401519082015291810151908201526060016102f9565b34801561076157600080fd5b50610317611b4e565b34801561077657600080fd5b506103ad60035481565b6103ad61078e3660046133c9565b611bdc565b34801561079f57600080fd5b506103176120b9565b3480156107b457600080fd5b506103966107c3366004613073565b6120c6565b60007fe9fcff60011c1a99f7b7244d1f2d9da93d79ea8ef3654ce590d775575255b2bd5433146000811461081f5750507fffffffffffffffffffffffffffffffffffffffffffffffffffffffffffffffe036013590565b3391505b5090565b60606108517fe9fcff60011c1a99f7b7244d1f2d9da93d79ea8ef3654ce590d775575255b2bd5490565b73ffffffffffffffffffffffffffffffffffffffff166306fdde036040518163ffffffff1660e01b8152600401600060405180830381865afa15801561089b573d6000803e3d6000fd5b505050506040513d6000823e601f3d9081017fffffffffffffffffffffffffffffffffffffffffffffffffffffffffffffffe01682016040526108e1919081019061348c565b905090565b7fb56711ba6bd3ded7639fc335ee7524fe668a79d7558c85992e3f8494cf7727775473ffffffffffffffffffffffffffffffffffffffff166109266107c8565b73ffffffffffffffffffffffffffffffffffffffff16146109a8576040517f08c379a000000000000000000000000000000000000000000000000000000000815260206004820152601b60248201527f4552433732313a206f776e6572206f6e6c792066756e6374696f6e000000000060448201526064015b60405180910390fd5b73ffffffffffffffffffffffffffffffffffffffff8116610a4b576040517f08c379a000000000000000000000000000000000000000000000000000000000815260206004820152602360248201527f46756e647320526563697069656e742063616e6e6f742062652030206164647260448201527f6573730000000000000000000000000000000000000000000000000000000000606482015260840161099f565b600580547fffffffffffffffffffffffff00000000000000000000000000000000000000001673ffffffffffffffffffffffffffffffffffffffff8316179055610a936107c8565b73ffffffffffffffffffffffffffffffffffffffff168173ffffffffffffffffffffffffffffffffffffffff167f70a7ea5c664ab9c21baf3da59bb2f1e1ca33557b08a0031fab4f17076744995160405160405180910390a350565b600b546000906108e1906cffffffffffffffffffffffffff166121c6565b60008173ffffffffffffffffffffffffffffffffffffffff16610b4e7fb56711ba6bd3ded7639fc335ee7524fe668a79d7558c85992e3f8494cf7727775490565b73ffffffffffffffffffffffffffffffffffffffff161492915050565b60006002544211610b7d575060035490565b600454600354610b8d91906134f0565b600254610b9a919061352d565b4210610ba65750600090565b600060045460025442610bb99190613545565b610bc3919061355c565b905080600354610bd39190613545565b91505090565b6000610c037fb56711ba6bd3ded7639fc335ee7524fe668a79d7558c85992e3f8494cf7727775490565b73ffffffffffffffffffffffffffffffffffffffff168273ffffffffffffffffffffffffffffffffffffffff16149050919050565b610c736040518060c0016040528060001515815260200160008152602001600081526020016000815260200160008152602001600081525090565b6040518060c00160405280610c8a60025442101590565b15158152600b546cffffffffffffffffffffffffff8116602083015260025460408301526d0100000000000000000000000000900462ffffff1660608201526009547bffffffffffffffffffffffffffffffffffffffffffffffffffffffff16608082015260a001610cfa610b6b565b9052919050565b7f04b524dd539523930d3901481aa9455d7752b49add99e1647adb8b09a313727954600203610d8c576040517f08c379a000000000000000000000000000000000000000000000000000000000815260206004820152601960248201527f484f4c4f47524150483a207265656e7472616e742063616c6c00000000000000604482015260640161099f565b610db560027f04b524dd539523930d3901481aa9455d7752b49add99e1647adb8b09a313727955565b60055473ffffffffffffffffffffffffffffffffffffffff16610e34576040517f08c379a000000000000000000000000000000000000000000000000000000000815260206004820152601f60248201527f46756e647320526563697069656e742061646472657373206e6f742073657400604482015260640161099f565b6000610e3e6107c8565b600554909150479073ffffffffffffffffffffffffffffffffffffffff808416911614801590610ebb57507fb56711ba6bd3ded7639fc335ee7524fe668a79d7558c85992e3f8494cf7727775473ffffffffffffffffffffffffffffffffffffffff168273ffffffffffffffffffffffffffffffffffffffff1614155b15610ef2576040517f1dab829b00000000000000000000000000000000000000000000000000000000815260040160405180910390fd5b60055460405160009173ffffffffffffffffffffffffffffffffffffffff16906203345090849084818181858888f193505050503d8060008114610f52576040519150601f19603f3d011682016040523d82523d6000602084013e610f57565b606091505b5050905080610f92576040517f39debd5b00000000000000000000000000000000000000000000000000000000815260040160405180910390fd5b60055460405183815273ffffffffffffffffffffffffffffffffffffffff918216918516907fa92ff919b850e4909ab2261d907ef955f11bc1716733a6cbece38d163a69af8a9060200160405180910390a350505061101060017f04b524dd539523930d3901481aa9455d7752b49add99e1647adb8b09a313727955565b565b60085460009073ffffffffffffffffffffffffffffffffffffffff166110366107c8565b73ffffffffffffffffffffffffffffffffffffffff1614611083576040517fd7ae9e8300000000000000000000000000000000000000000000000000000000815260040160405180910390fd5b8161108f600182613545565b60045461109c91906134f0565b6007546110a99190613545565b42106110e1576040517f5fe2561a00000000000000000000000000000000000000000000000000000000815260040160405180910390fd5b6110eb848461226b565b50506009547bffffffffffffffffffffffffffffffffffffffffffffffffffffffff1692915050565b600061113e7f4e5f991bca30eca2d4643aaefa807e88f96a4a97398933d572a3c0d973004a015490565b156111a5576040517f08c379a000000000000000000000000000000000000000000000000000000000815260206004820152601e60248201527f484f4c4f47524150483a20616c726561647920696e697469616c697a65640000604482015260640161099f565b337fe9fcff60011c1a99f7b7244d1f2d9da93d79ea8ef3654ce590d775575255b2bd556000828060200190518101906111de919061363b565b90506111ee816101400151612670565b61121a8160e001517fb56711ba6bd3ded7639fc335ee7524fe668a79d7558c85992e3f8494cf77277755565b610100810151600880547fffffffffffffffffffffffff00000000000000000000000000000000000000001673ffffffffffffffffffffffffffffffffffffffff9092169190911790558051805161127a91600191602090910190612ef2565b50608081015164ffffffffff1660025560a081015163ffffffff811660035560c082015162ffffff166004819055610120830151600580547fffffffffffffffffffffffff00000000000000000000000000000000000000001673ffffffffffffffffffffffffffffffffffffffff9092169190911790556000916112ff91906137ba565b63ffffffff16826080015161131491906137e6565b64ffffffffff16600781905560068190556101608301518051600b805460209093015162ffffff166d0100000000000000000000000000027fffffffffffffffffffffffffffffffff000000000000000000000000000000009093166cffffffffffffffffffffffffff9092169190911791909117905590506113b660017f04b524dd539523930d3901481aa9455d7752b49add99e1647adb8b09a313727955565b6113bf84612751565b949350505050565b60006108e17fb56711ba6bd3ded7639fc335ee7524fe668a79d7558c85992e3f8494cf7727775490565b600061141b7fb56711ba6bd3ded7639fc335ee7524fe668a79d7558c85992e3f8494cf7727775490565b73ffffffffffffffffffffffffffffffffffffffff166114396107c8565b73ffffffffffffffffffffffffffffffffffffffff1614905090565b61145d6113f1565b6114c3576040517f08c379a000000000000000000000000000000000000000000000000000000000815260206004820152600e60248201527f4e6f7420617574686f72697a6564000000000000000000000000000000000000604482015260640161099f565b6114cc81612670565b50565b6060815167ffffffffffffffff8111156114eb576114eb6130bc565b60405190808252806020026020018201604052801561151e57816020015b60608152602001906001900390816115095790505b50905060005b82518110156115a857611578308483815181106115435761154361380f565b60200260200101516115536107c8565b60405160200161156492919061385a565b6040516020818303038152906040526128f8565b82828151811061158a5761158a61380f565b602002602001018190525080806115a0906138a4565b915050611524565b50919050565b606060006115da7fe9fcff60011c1a99f7b7244d1f2d9da93d79ea8ef3654ce590d775575255b2bd5490565b6040517f4f558e790000000000000000000000000000000000000000000000000000000081526004810185905290915073ffffffffffffffffffffffffffffffffffffffff821690634f558e7990602401602060405180830381865afa158015611648573d6000803e3d6000fd5b505050506040513d601f19601f8201168201806040525081019061166c91906138dc565b6116d2576040517f08c379a000000000000000000000000000000000000000000000000000000000815260206004820152601c60248201527f4552433732313a20746f6b656e20646f6573206e6f7420657869737400000000604482015260640161099f565b60008173ffffffffffffffffffffffffffffffffffffffff166306fdde036040518163ffffffff1660e01b8152600401600060405180830381865afa15801561171f573d6000803e3d6000fd5b505050506040513d6000823e601f3d9081017fffffffffffffffffffffffffffffffffffffffffffffffffffffffffffffffe0168201604052611765919081019061348c565b9050600060405180610160016040528083815260200160018054611788906138fe565b80601f01602080910402602001604051908101604052809291908181526020018280546117b4906138fe565b80156118015780601f106117d657610100808354040283529160200191611801565b820191906000526020600020905b8154815290600101906020018083116117e457829003601f168201915b505050505081526020016040518060600160405280603d8152602001613d80603d913981526020016040518060200160405280600081525081526020016040518060400160405280601c81526020017f68747470733a2f2f796f75722d6e66742d70726f6a6563742e636f6d0000000081525081526020016040518060400160405280601a81526020017f61723a2f2f656e637279707465644d656469615572694865726500000000000081525081526020016040518060400160405280601181526020017f64656372797074696f6e4b65794865726500000000000000000000000000000081525081526020016040518060400160405280601181526020017f756e697175654e6674486173684865726500000000000000000000000000000081525081526020016040518060400160405280601a81526020017f61723a2f2f6465637279707465644d656469615572694865726500000000000081525081526020018681526020016000815250905061197b81612924565b95945050505050565b7fb56711ba6bd3ded7639fc335ee7524fe668a79d7558c85992e3f8494cf7727775473ffffffffffffffffffffffffffffffffffffffff166119c46107c8565b73ffffffffffffffffffffffffffffffffffffffff1614611a41576040517f08c379a000000000000000000000000000000000000000000000000000000000815260206004820152601b60248201527f4552433732313a206f776e6572206f6e6c792066756e6374696f6e0000000000604482015260640161099f565b600b805462ffffff83166d0100000000000000000000000000027fffffffffffffffffffffffffffffffff000000000000000000000000000000009091166cffffffffffffffffffffffffff851617179055611a9b6107c8565b73ffffffffffffffffffffffffffffffffffffffff167fc1ff5e4744ac8dd2b8027a10e3723b165975297501c71c4e7dcb8796d96375db60405160405180910390a25050565b611b0560405180606001604052806000815260200160008152602001600081525090565b506040805160608101825273ffffffffffffffffffffffffffffffffffffffff9092166000818152600c6020818152848320548087528187018490529390925290529082015290565b60008054611b5b906138fe565b80601f0160208091040260200160405190810160405280929190818152602001828054611b87906138fe565b8015611bd45780601f10611ba957610100808354040283529160200191611bd4565b820191906000526020600020905b815481529060010190602001808311611bb757829003601f168201915b505050505081565b6000611c067f04b524dd539523930d3901481aa9455d7752b49add99e1647adb8b09a31372795490565b600203611c6f576040517f08c379a000000000000000000000000000000000000000000000000000000000815260206004820152601960248201527f484f4c4f47524150483a207265656e7472616e742063616c6c00000000000000604482015260640161099f565b611c9860027f04b524dd539523930d3901481aa9455d7752b49add99e1647adb8b09a313727955565b81611ca4600182613545565b600454611cb191906134f0565b600754611cbe9190613545565b4210611cf6576040517f5fe2561a00000000000000000000000000000000000000000000000000000000815260040160405180910390fd5b600254421015611d32576040517ff12dcc7f00000000000000000000000000000000000000000000000000000000815260040160405180910390fd5b600b54600090611d50906cffffffffffffffffffffffffff166121c6565b9050611d5c84826134f0565b341015611db557600b54611d809085906cffffffffffffffffffffffffff166134f0565b6040517f6a1c179e00000000000000000000000000000000000000000000000000000000815260040161099f91815260200190565b600454611dc290856134f0565b600754611dcf9190613545565b6007556000611dde85836134f0565b611de89034613545565b600b549091506d0100000000000000000000000000900462ffffff1615801590611e7a5750600b546d0100000000000000000000000000900462ffffff1685600c6000611e336107c8565b73ffffffffffffffffffffffffffffffffffffffff1673ffffffffffffffffffffffffffffffffffffffff16815260200190815260200160002054611e78919061352d565b115b15611eb1576040517f220ae94c00000000000000000000000000000000000000000000000000000000815260040160405180910390fd5b611ec2611ebc6107c8565b8661226b565b6000611eec7fe9fcff60011c1a99f7b7244d1f2d9da93d79ea8ef3654ce590d775575255b2bd5490565b905060008173ffffffffffffffffffffffffffffffffffffffff166377dbd8636040518163ffffffff1660e01b8152600401602060405180830381865afa158015611f3b573d6000803e3d6000fd5b505050506040513d601f19601f82011682018060405250810190611f5f919061394b565b600954909150600090611f919089907bffffffffffffffffffffffffffffffffffffffffffffffffffffffff16613545565b611f9b908361352d565b611fa690600161352d565b90508488611fb26107c8565b73ffffffffffffffffffffffffffffffffffffffff167f4e26b0356a15833a75d497ecc40ebbb716b99466ed0dba9454f1fff451e25a9084604051611ff991815260200190565b60405180910390a483156120845761200f6107c8565b73ffffffffffffffffffffffffffffffffffffffff1684620334505a11612036575a61203b565b620334505b6040519091906000818181858888f193505050503d806000811461207b576040519150601f19603f3d011682016040523d82523d6000602084013e612080565b606091505b5050505b955050505050506120b460017f04b524dd539523930d3901481aa9455d7752b49add99e1647adb8b09a313727955565b919050565b60018054611b5b906138fe565b7fb56711ba6bd3ded7639fc335ee7524fe668a79d7558c85992e3f8494cf7727775473ffffffffffffffffffffffffffffffffffffffff166121066107c8565b73ffffffffffffffffffffffffffffffffffffffff1614612183576040517f08c379a000000000000000000000000000000000000000000000000000000000815260206004820152601b60248201527f4552433732313a206f776e6572206f6e6c792066756e6374696f6e0000000000604482015260640161099f565b600880547fffffffffffffffffffffffff00000000000000000000000000000000000000001673ffffffffffffffffffffffffffffffffffffffff831617905550565b6000816000036121d857506000919050565b6040517ff5d781610000000000000000000000000000000000000000000000000000000081526004810183905273ea7f4c52cbd4cf1036cdca8b16aca11f5b09cf6e9063f5d7816190602401602060405180830381865afa158015612241573d6000803e3d6000fd5b505050506040513d601f19601f82011682018060405250810190612265919061394b565b92915050565b60006122957fe9fcff60011c1a99f7b7244d1f2d9da93d79ea8ef3654ce590d775575255b2bd5490565b905060008173ffffffffffffffffffffffffffffffffffffffff166377dbd8636040518163ffffffff1660e01b8152600401602060405180830381865afa1580156122e4573d6000803e3d6000fd5b505050506040513d601f19601f82011682018060405250810190612308919061394b565b90506000805b84811461266857600980547bffffffffffffffffffffffffffffffffffffffffffffffffffffffff808216600101167fffffffff000000000000000000000000000000000000000000000000000000009091161790555b60095473ffffffffffffffffffffffffffffffffffffffff851690634f558e79906123ae907bffffffffffffffffffffffffffffffffffffffffffffffffffffffff168661352d565b6040518263ffffffff1660e01b81526004016123cc91815260200190565b602060405180830381865afa1580156123e9573d6000803e3d6000fd5b505050506040513d601f19601f8201168201806040525081019061240d91906138dc565b806124bb575060095473ffffffffffffffffffffffffffffffffffffffff8516906323250cae9061245c907bffffffffffffffffffffffffffffffffffffffffffffffffffffffff168661352d565b6040518263ffffffff1660e01b815260040161247a91815260200190565b602060405180830381865afa158015612497573d6000803e3d6000fd5b505050506040513d601f19601f820116820180604052508101906124bb91906138dc565b1561251457600980547bffffffffffffffffffffffffffffffffffffffffffffffffffffffff808216600101167fffffffff00000000000000000000000000000000000000000000000000000000909116179055612365565b6009546040517f3b4f1b2600000000000000000000000000000000000000000000000000000000815273ffffffffffffffffffffffffffffffffffffffff88811660048301527bffffffffffffffffffffffffffffffffffffffffffffffffffffffff90921660248201819052935090851690633b4f1b2690604401600060405180830381600087803b1580156125aa57600080fd5b505af11580156125be573d6000803e3d6000fd5b505050506000827bffffffffffffffffffffffffffffffffffffffffffffffffffffffff16846125ee919061352d565b9050827bffffffffffffffffffffffffffffffffffffffffffffffffffffffff168773ffffffffffffffffffffffffffffffffffffffff167f3a8a89b59a31c39a36febecb987e0657ab7b7c73b60ebacb44dcb9886c2d5c8a8360405161265791815260200190565b60405180910390a35060010161230e565b505050505050565b600080805461267e906138fe565b80601f01602080910402602001604051908101604052809291908181526020018280546126aa906138fe565b80156126f75780601f106126cc576101008083540402835291602001916126f7565b820191906000526020600020905b8154815290600101906020018083116126da57829003601f168201915b5050855193945061271393600093506020870192509050612ef2565b507fc9c7c3fe08b88b4df9d4d47ef47d2c43d55c025a0ba88ca442580ed9e7348a168183604051612745929190613964565b60405180910390a15050565b600061277b7f4e5f991bca30eca2d4643aaefa807e88f96a4a97398933d572a3c0d973004a015490565b156127e2576040517f08c379a000000000000000000000000000000000000000000000000000000000815260206004820152601b60248201527f4552433732313a20616c726561647920696e697469616c697a65640000000000604482015260640161099f565b337fe9fcff60011c1a99f7b7244d1f2d9da93d79ea8ef3654ce590d775575255b2bd8190557fb56711ba6bd3ded7639fc335ee7524fe668a79d7558c85992e3f8494cf7727775473ffffffffffffffffffffffffffffffffffffffff81166128a6576040517f08c379a000000000000000000000000000000000000000000000000000000000815260206004820152601860248201527f484f4c4f47524150483a206f776e6572206e6f74207365740000000000000000604482015260640161099f565b6128cf60017f4e5f991bca30eca2d4643aaefa807e88f96a4a97398933d572a3c0d973004a0155565b507f4ddf47d4000000000000000000000000000000000000000000000000000000009392505050565b606061291d8383604051806060016040528060278152602001613dfd6027913961293c565b9392505050565b60606000612931836129c1565b905061291d81612aea565b60606000808573ffffffffffffffffffffffffffffffffffffffff16856040516129669190613989565b600060405180830381855af49150503d80600081146129a1576040519150601f19603f3d011682016040523d82523d6000602084013e6129a6565b606091505b50915091506129b786838387612b1b565b9695505050505050565b606080606060008461014001511115612a04576129e2846101400151612bbb565b6040516020016129f291906139a5565b60405160208183030381529060405291505b612a12846101200151612bbb565b845160208087015160808801516040808a015160a08b01519151969750612a409688958a95949391016139ea565b604080517fffffffffffffffffffffffffffffffffffffffffffffffffffffffffffffffe08184030181529082905260c086015160e0870151610100880151606089015189519495612a96958891602001613b70565b604080517fffffffffffffffffffffffffffffffffffffffffffffffffffffffffffffffe081840301815290829052612ad29291602001613d14565b60405160208183030381529060405292505050919050565b6060612af582612c79565b604051602001612b059190613d3a565b6040516020818303038152906040529050919050565b60608315612bb1578251600003612baa5773ffffffffffffffffffffffffffffffffffffffff85163b612baa576040517f08c379a000000000000000000000000000000000000000000000000000000000815260206004820152601d60248201527f416464726573733a2063616c6c20746f206e6f6e2d636f6e7472616374000000604482015260640161099f565b50816113bf565b6113bf8383612dcc565b60606000612bc883612e10565b600101905060008167ffffffffffffffff811115612be857612be86130bc565b6040519080825280601f01601f191660200182016040528015612c12576020820181803683370190505b5090508181016020015b7fffffffffffffffffffffffffffffffffffffffffffffffffffffffffffffffff017f3031323334353637383961626364656600000000000000000000000000000000600a86061a8153600a8504945084612c1c57509392505050565b60608151600003612c9857505060408051602081019091526000815290565b6000604051806060016040528060408152602001613dbd6040913990506000600384516002612cc7919061352d565b612cd1919061355c565b612cdc9060046134f0565b67ffffffffffffffff811115612cf457612cf46130bc565b6040519080825280601f01601f191660200182016040528015612d1e576020820181803683370190505b509050600182016020820185865187015b80821015612d8a576003820191508151603f8160121c168501518453600184019350603f81600c1c168501518453600184019350603f8160061c168501518453600184019350603f8116850151845350600183019250612d2f565b5050600386510660018114612da65760028114612db957612dc1565b603d6001830353603d6002830353612dc1565b603d60018303535b509195945050505050565b815115612ddc5781518083602001fd5b806040517f08c379a000000000000000000000000000000000000000000000000000000000815260040161099f919061303e565b6000807a184f03e93ff9f4daa797ed6e38ed64bf6a1f0100000000000000008310612e59577a184f03e93ff9f4daa797ed6e38ed64bf6a1f010000000000000000830492506040015b6d04ee2d6d415b85acef81000000008310612e85576d04ee2d6d415b85acef8100000000830492506020015b662386f26fc100008310612ea357662386f26fc10000830492506010015b6305f5e1008310612ebb576305f5e100830492506008015b6127108310612ecf57612710830492506004015b60648310612ee1576064830492506002015b600a83106122655760010192915050565b828054612efe906138fe565b90600052602060002090601f016020900481019282612f205760008555612f66565b82601f10612f3957805160ff1916838001178555612f66565b82800160010185558215612f66579182015b82811115612f66578251825591602001919060010190612f4b565b506108239291505b808211156108235760008155600101612f6e565b600060208284031215612f9457600080fd5b81357fffffffff000000000000000000000000000000000000000000000000000000008116811461291d57600080fd5b60005b83811015612fdf578181015183820152602001612fc7565b83811115612fee576000848401525b50505050565b6000815180845261300c816020860160208601612fc4565b601f017fffffffffffffffffffffffffffffffffffffffffffffffffffffffffffffffe0169290920160200192915050565b60208152600061291d6020830184612ff4565b73ffffffffffffffffffffffffffffffffffffffff811681146114cc57600080fd5b60006020828403121561308557600080fd5b813561291d81613051565b600080604083850312156130a357600080fd5b82356130ae81613051565b946020939093013593505050565b7f4e487b7100000000000000000000000000000000000000000000000000000000600052604160045260246000fd5b604051610180810167ffffffffffffffff8111828210171561310f5761310f6130bc565b60405290565b604051601f82017fffffffffffffffffffffffffffffffffffffffffffffffffffffffffffffffe016810167ffffffffffffffff8111828210171561315c5761315c6130bc565b604052919050565b600067ffffffffffffffff82111561317e5761317e6130bc565b50601f017fffffffffffffffffffffffffffffffffffffffffffffffffffffffffffffffe01660200190565b60006131bd6131b884613164565b613115565b90508281528383830111156131d157600080fd5b828260208301376000602084830101529392505050565b600082601f8301126131f957600080fd5b61291d838335602085016131aa565b60006020828403121561321a57600080fd5b813567ffffffffffffffff81111561323157600080fd5b6113bf848285016131e8565b60006020828403121561324f57600080fd5b813567ffffffffffffffff81111561326657600080fd5b8201601f8101841361327757600080fd5b6113bf848235602084016131aa565b6000602080838503121561329957600080fd5b823567ffffffffffffffff808211156132b157600080fd5b818501915085601f8301126132c557600080fd5b8135818111156132d7576132d76130bc565b8060051b6132e6858201613115565b918252838101850191858101908984111561330057600080fd5b86860192505b8383101561333c5782358581111561331e5760008081fd5b61332c8b89838a01016131e8565b8352509186019190860190613306565b9998505050505050505050565b6000602080830181845280855180835260408601915060408160051b870101925083870160005b828110156133bc577fffffffffffffffffffffffffffffffffffffffffffffffffffffffffffffffc08886030184526133aa858351612ff4565b94509285019290850190600101613370565b5092979650505050505050565b6000602082840312156133db57600080fd5b5035919050565b6cffffffffffffffffffffffffff811681146114cc57600080fd5b62ffffff811681146114cc57600080fd5b6000806040838503121561342157600080fd5b823561342c816133e2565b9150602083013561343c816133fd565b809150509250929050565b600082601f83011261345857600080fd5b81516134666131b882613164565b81815284602083860101111561347b57600080fd5b6113bf826020830160208701612fc4565b60006020828403121561349e57600080fd5b815167ffffffffffffffff8111156134b557600080fd5b6113bf84828501613447565b7f4e487b7100000000000000000000000000000000000000000000000000000000600052601160045260246000fd5b6000817fffffffffffffffffffffffffffffffffffffffffffffffffffffffffffffffff0483118215151615613528576135286134c1565b500290565b60008219821115613540576135406134c1565b500190565b600082821015613557576135576134c1565b500390565b600082613592577f4e487b7100000000000000000000000000000000000000000000000000000000600052601260045260246000fd5b500490565b805164ffffffffff811681146120b457600080fd5b805163ffffffff811681146120b457600080fd5b80516120b4816133fd565b80516120b481613051565b6000604082840312156135e857600080fd5b6040516040810181811067ffffffffffffffff8211171561360b5761360b6130bc565b8060405250809150825161361e816133e2565b8152602083015161362e816133fd565b6020919091015292915050565b60006020828403121561364d57600080fd5b815167ffffffffffffffff8082111561366557600080fd5b908301906101a0828603121561367a57600080fd5b6136826130eb565b82518281111561369157600080fd5b61369d87828601613447565b8252506020830151828111156136b257600080fd5b6136be87828601613447565b6020830152506040830151828111156136d657600080fd5b6136e287828601613447565b6040830152506060830151828111156136fa57600080fd5b61370687828601613447565b60608301525061371860808401613597565b608082015261372960a084016135ac565b60a082015261373a60c084016135c0565b60c082015261374b60e084016135cb565b60e082015261010061375e8185016135cb565b908201526101206137708482016135cb565b90820152610140838101518381111561378857600080fd5b61379488828701613447565b82840152505061016091506137ab868385016135d6565b91810191909152949350505050565b600063ffffffff808316818516818304811182151516156137dd576137dd6134c1565b02949350505050565b600064ffffffffff808316818516808303821115613806576138066134c1565b01949350505050565b7f4e487b7100000000000000000000000000000000000000000000000000000000600052603260045260246000fd5b60008151613850818560208601612fc4565b9290920192915050565b6000835161386c818460208801612fc4565b60609390931b7fffffffffffffffffffffffffffffffffffffffff000000000000000000000000169190920190815260140192915050565b60007fffffffffffffffffffffffffffffffffffffffffffffffffffffffffffffffff82036138d5576138d56134c1565b5060010190565b6000602082840312156138ee57600080fd5b8151801515811461291d57600080fd5b600181811c9082168061391257607f821691505b6020821081036115a8577f4e487b7100000000000000000000000000000000000000000000000000000000600052602260045260246000fd5b60006020828403121561395d57600080fd5b5051919050565b6040815260006139776040830185612ff4565b828103602084015261197b8185612ff4565b6000825161399b818460208701612fc4565b9190910192915050565b7f2f000000000000000000000000000000000000000000000000000000000000008152600082516139dd816001850160208701612fc4565b9190910160010192915050565b7f7b226e616d65223a202200000000000000000000000000000000000000000000815260008851613a2281600a850160208d01612fc4565b7f2000000000000000000000000000000000000000000000000000000000000000600a918401918201528851613a5f81600b840160208d01612fc4565b8851910190613a7581600b840160208c01612fc4565b7f222c20226465736372697074696f6e223a202200000000000000000000000000600b92909101918201528651613ab381601e840160208b01612fc4565b7f222c202265787465726e616c5f75726c223a2022000000000000000000000000601e92909101918201528551613af1816032840160208a01612fc4565b613b61613b5b613b32613b2c6032858701017f222c2022696d616765223a2022000000000000000000000000000000000000008152600d0190565b8961383e565b7f222c2022656e637279707465645f6d656469615f75726c223a202200000000008152601b0190565b8661383e565b9b9a5050505050505050505050565b7f222c202264656372797074696f6e5f6b6579223a202200000000000000000000815260008751613ba8816016850160208c01612fc4565b7f222c202268617368223a202200000000000000000000000000000000000000006016918401918201528751613be5816022840160208c01612fc4565b7f222c20226465637279707465645f6d656469615f75726c223a20220000000000602292909101918201528651613c2381603d840160208b01612fc4565b7f222c2022616e696d6174696f6e5f75726c223a20220000000000000000000000603d92909101918201528551613c61816052840160208a01612fc4565b7f222c202270726f70657274696573223a207b226e756d626572223a2000000000605292909101918201528451613c9f81606e840160208901612fc4565b613d06613cdd613cd7606e848601017f2c20226e616d65223a20220000000000000000000000000000000000000000008152600b0190565b8761383e565b7f227d7d0000000000000000000000000000000000000000000000000000000000815260030190565b9a9950505050505050505050565b60008351613d26818460208801612fc4565b835190830190613806818360208801612fc4565b7f646174613a6170706c69636174696f6e2f6a736f6e3b6261736536342c000000815260008251613d7281601d850160208701612fc4565b91909101601d019291505056fe697066733a2f2f516d4e4d726141344b6342316570675766714e366b726e325755795434717061517a6245704d68586a42434e43572f6e66742e706e674142434445464748494a4b4c4d4e4f505152535455565758595a6162636465666768696a6b6c6d6e6f707172737475767778797a303132333435363738392b2f416464726573733a206c6f772d6c6576656c2064656c65676174652063616c6c206661696c6564a164736f6c634300080d000a",
  "devdoc": {
    "details": "This contract subscribes to the following HolographERC721 events:       - customContractURI       Do not enable or subscribe to any other events unless you modified the source code for them.",
    "kind": "dev",
    "methods": {
      "constructor": {
        "details": "Constructor is left empty and init is used instead"
      },
      "currentTheoricalMaxSupply()": {
        "details": "The max supply is calculated based on the current time and the mint interval, by subtracting      the elapsed_mint intervals from the initial max supply.      - The max supply is the initial max supply if the current time is less than the start date.      - The max supply is zero if the current time is greater than the end date.      - The max supply is decreased by one for each mint interval that has passed.      - The max supply is calculated by subtracting the intervals elapsed from the initial max supply.",
        "returns": {
          "_0": "max supply"
        }
      },
      "init(bytes)": {
        "details": "This function is called by the deployer/the factory when creating a contract",
        "params": {
          "initPayload": "abi encoded payload (CountdownERC721Initializer struct) to use for contract initilaization"
        }
      },
      "isAdmin(address)": {
        "details": "Getter for admin role associated with the contract to handle metadata",
        "returns": {
          "_0": "boolean if address is admin"
        }
      },
      "mintTo(address,uint256)": {
        "params": {
          "quantity": "quantity to mint",
          "recipient": "recipient to mint to"
        }
      },
      "mintedPerAddress(address)": {
        "details": "Number of NFTs the user has minted per address",
        "params": {
          "minter": "to get counts for"
        }
      },
      "purchase(uint256)": {
        "details": "This allows the user to purchase/mint a edition at the given price in the contract.",
        "params": {
          "quantity": "quantity to purchase"
        }
      },
      "saleDetails()": {
        "details": "Returns the sale details for the contract",
        "returns": {
          "_0": "SaleDetails sale information details"
        }
      },
      "setContractURI(string)": {
        "details": "Caller should be authorized to setup contractURI, e.g. contract admin.                  See {_canSetContractURI}.                  Emits {ContractURIUpdated Event}.",
        "params": {
          "_uri": "keccak256 hash of the role. e.g. keccak256(\"TRANSFER_ROLE\")"
        }
      },
      "setFundsRecipient(address)": {
        "params": {
          "newRecipientAddress": "new funds recipient address"
        }
      },
      "setMinter(address)": {
        "params": {
          "minterAddress": "new minter address"
        }
      },
      "setSaleConfiguration(uint104,uint24)": {
        "details": "This sets the sales configuration",
        "params": {
          "maxSalePurchasePerAddress": "Max # of purchases (public) per address allowed",
          "publicSalePrice": "New public sale price"
        }
      },
      "tokenURI(uint256)": {
        "details": "Returns a base64 encoded metadata URI for a given tokenId.",
        "params": {
          "tokenId": "The ID of the token to get URI for"
        },
        "returns": {
          "_0": "Token URI"
        }
      },
      "version()": {
        "details": "Used for contract versioning and validation",
        "returns": {
          "_0": "version of the contract"
        }
      }
    },
    "stateVariables": {
      "DESCRIPTION": {
        "details": "This storage variable is set only once in the init and can be considered as immutable"
      },
      "FUNDS_RECIPIENT": {
        "details": "This storage variable is set only once in the init and can be considered as immutable"
      },
      "INITIAL_END_DATE": {
        "details": "This storage variable is set only once in the init and can be considered as immutable"
      },
      "INITIAL_MAX_SUPPLY": {
        "details": "This storage variable is set only once in the init and can be considered as immutable"
      },
      "MINT_INTERVAL": {
        "details": "This storage variable is set only once in the init and can be considered as immutable"
      },
      "START_DATE": {
        "details": "This storage variable is set only once in the init and can be considered as immutable"
      },
      "STATIC_GAS_LIMIT": {
        "details": "Gas limit for transferring funds"
      },
      "_baseURI": {
        "details": "Internal reference to the base URI"
      },
      "_currentTokenId": {
        "details": "Internal reference used for minting incremental token ids."
      },
      "dropsPriceOracle": {
        "details": "Address of the price oracle proxy"
      },
      "minter": {
        "details": "This account tokens on behalf of those that purchase them offchain"
      },
      "totalMintsByAddress": {
        "details": "Mapping for the total mints by address"
      }
    },
    "version": 1
  },
  "userdoc": {
    "errors": {
      "Access_MissingRoleOrAdmin(bytes32)": [
        {
          "notice": "Missing the given role or admin access"
        }
      ],
      "Access_OnlyAdmin()": [
        {
          "notice": "Only admin can access this function"
        }
      ],
      "Access_OnlyMinter()": [
        {
          "notice": "Only minter can access this function"
        }
      ],
      "Access_WithdrawNotAllowed()": [
        {
          "notice": "Withdraw is not allowed by this user"
        }
      ],
      "Admin_InvalidUpgradeAddress(address)": [
        {
          "notice": "Invalid admin upgrade address"
        }
      ],
      "Admin_UnableToFinalizeNotOpenEdition()": [
        {
          "notice": "Unable to finalize an edition not marked as open (size set to uint64_max_value)"
        }
      ],
      "ExternalMetadataRenderer_CallFailed()": [
        {
          "notice": "Call to external metadata renderer failed."
        }
      ],
      "FeePaymentFailed()": [
        {
          "notice": "Fee payout failed"
        }
      ],
      "LazyMint_AlreadyInitialized()": [
        {
          "notice": "Lazy mint initialization failed"
        }
      ],
      "MintFee_FundsSendFailure()": [
        {
          "notice": "Mint fee send failure"
        }
      ],
      "Mint_SoldOut()": [
        {
          "notice": "NFT sold out"
        }
      ],
      "NotInitialized()": [
        {
          "notice": "Contract is not initialized yet"
        }
      ],
      "Purchase_CountdownCompleted()": [
        {
          "notice": "The countdown has been completed"
        }
      ],
      "Purchase_TooManyForAddress()": [
        {
          "notice": "Too many purchase for address"
        }
      ],
      "Purchase_WrongPrice(uint256)": [
        {
          "notice": "Wrong price for purchase"
        }
      ],
      "Sale_Inactive()": [
        {
          "notice": "Sale is inactive"
        }
      ],
      "Setup_RoyaltyPercentageTooHigh(uint16)": [
        {
          "notice": "Royalty percentage too high"
        }
      ],
      "Withdraw_FundsSendFailure()": [
        {
          "notice": "Cannot withdraw funds due to ETH send failure."
        }
      ]
    },
    "events": {
      "FundsRecipientChanged(address,address)": {
        "notice": "Event emitted when the funds recipient is changed"
      },
      "FundsWithdrawn(address,address,uint256)": {
        "notice": "Event emitted when the funds are withdrawn from the minting contract"
      },
      "MintFeePayout(uint256,address,bool)": {
        "notice": "Event emitted for mint fee payout"
      },
      "NFTMinted(address,uint256,uint256)": {
        "notice": "Event emitted when an nfs is minted"
      },
      "OpenMintFinalized(address,uint256)": {
        "notice": "Event emitted when an open mint is finalized and further minting is closed forever on the contract."
      },
      "Sale(address,uint256,uint256,uint256)": {
        "notice": "Event emitted for each sale"
      },
      "SalesConfigChanged(address)": {
        "notice": "Sales configuration has been changed"
      }
    },
    "kind": "user",
    "methods": {
      "DESCRIPTION()": {
        "notice": "Getter for the description"
      },
      "END_DATE()": {
        "notice": "Getter for the end date"
      },
      "INITIAL_END_DATE()": {
        "notice": "Getter for the initial end date"
      },
      "INITIAL_MAX_SUPPLY()": {
        "notice": "Getter for the initial max supply"
      },
      "MINT_INTERVAL()": {
        "notice": "Getter for the mint interval"
      },
      "START_DATE()": {
        "notice": "Getter for the purchase start date"
      },
      "contractURI()": {
        "notice": "Returns the contract metadata URI."
      },
      "currentTheoricalMaxSupply()": {
        "notice": "Returns the theoretical maximum supply for the current time"
      },
      "getNativePrice()": {
        "notice": "Convert USD price to current price in native Ether units"
      },
      "init(bytes)": {
        "notice": "Used internally to initialize the contract instead of through a constructor"
      },
      "mintTo(address,uint256)": {
        "notice": "Minter account mints tokens to a recipient that has paid offchain"
      },
      "minter()": {
        "notice": "Getter for the minter"
      },
      "name()": {
        "notice": "Returns the name of the token through the holographer entrypoint"
      },
      "saleDetails()": {
        "notice": "Sale details"
      },
      "salesConfig()": {
        "notice": "Sales configuration"
      },
      "setContractURI(string)": {
        "notice": "Lets a contract admin set the URI for contract-level metadata."
      },
      "setFundsRecipient(address)": {
        "notice": "Set a different funds recipient"
      },
      "setMinter(address)": {
        "notice": "Set the minter address"
      },
      "totalMinted()": {
        "notice": "Returns the total amount of tokens minted in the contract."
      },
      "version()": {
        "notice": "Returns the version of the contract"
      },
      "withdraw()": {
        "notice": "This withdraws native tokens from the contract to the contract owner."
      }
    },
    "version": 1
  },
  "storageLayout": {
    "storage": [
      {
        "astId": 9,
        "contract": "src/token/CountdownERC721.sol:CountdownERC721",
        "label": "contractURI",
        "offset": 0,
        "slot": "0",
        "type": "t_string_storage"
      },
      {
        "astId": 3389,
        "contract": "src/token/CountdownERC721.sol:CountdownERC721",
        "label": "DESCRIPTION",
        "offset": 0,
        "slot": "1",
        "type": "t_string_storage"
      },
      {
        "astId": 3392,
        "contract": "src/token/CountdownERC721.sol:CountdownERC721",
        "label": "START_DATE",
        "offset": 0,
        "slot": "2",
        "type": "t_uint256"
      },
      {
        "astId": 3395,
        "contract": "src/token/CountdownERC721.sol:CountdownERC721",
        "label": "INITIAL_MAX_SUPPLY",
        "offset": 0,
        "slot": "3",
        "type": "t_uint256"
      },
      {
        "astId": 3398,
        "contract": "src/token/CountdownERC721.sol:CountdownERC721",
        "label": "MINT_INTERVAL",
        "offset": 0,
        "slot": "4",
        "type": "t_uint256"
      },
      {
        "astId": 3401,
        "contract": "src/token/CountdownERC721.sol:CountdownERC721",
        "label": "FUNDS_RECIPIENT",
        "offset": 0,
        "slot": "5",
        "type": "t_address_payable"
      },
      {
        "astId": 3404,
        "contract": "src/token/CountdownERC721.sol:CountdownERC721",
        "label": "INITIAL_END_DATE",
        "offset": 0,
        "slot": "6",
        "type": "t_uint256"
      },
      {
        "astId": 3407,
        "contract": "src/token/CountdownERC721.sol:CountdownERC721",
        "label": "END_DATE",
        "offset": 0,
        "slot": "7",
        "type": "t_uint256"
      },
      {
        "astId": 3410,
        "contract": "src/token/CountdownERC721.sol:CountdownERC721",
        "label": "minter",
        "offset": 0,
        "slot": "8",
        "type": "t_address"
      },
      {
        "astId": 3420,
        "contract": "src/token/CountdownERC721.sol:CountdownERC721",
        "label": "_currentTokenId",
        "offset": 0,
        "slot": "9",
        "type": "t_uint224"
      },
      {
        "astId": 3423,
        "contract": "src/token/CountdownERC721.sol:CountdownERC721",
        "label": "_baseURI",
        "offset": 0,
        "slot": "10",
        "type": "t_string_storage"
      },
      {
        "astId": 3431,
        "contract": "src/token/CountdownERC721.sol:CountdownERC721",
        "label": "salesConfig",
        "offset": 0,
        "slot": "11",
        "type": "t_struct(CustomERC721SalesConfiguration)3305_storage"
      },
      {
        "astId": 3436,
        "contract": "src/token/CountdownERC721.sol:CountdownERC721",
        "label": "totalMintsByAddress",
        "offset": 0,
        "slot": "12",
        "type": "t_mapping(t_address,t_uint256)"
      }
    ],
    "types": {
      "t_address": {
        "encoding": "inplace",
        "label": "address",
        "numberOfBytes": "20"
      },
      "t_address_payable": {
        "encoding": "inplace",
        "label": "address payable",
        "numberOfBytes": "20"
      },
      "t_mapping(t_address,t_uint256)": {
        "encoding": "mapping",
        "key": "t_address",
        "label": "mapping(address => uint256)",
        "numberOfBytes": "32",
        "value": "t_uint256"
      },
      "t_string_storage": {
        "encoding": "bytes",
        "label": "string",
        "numberOfBytes": "32"
      },
      "t_struct(CustomERC721SalesConfiguration)3305_storage": {
        "encoding": "inplace",
        "label": "struct CustomERC721SalesConfiguration",
        "members": [
          {
            "astId": 3301,
            "contract": "src/token/CountdownERC721.sol:CountdownERC721",
            "label": "publicSalePrice",
            "offset": 0,
            "slot": "0",
            "type": "t_uint104"
          },
          {
            "astId": 3304,
            "contract": "src/token/CountdownERC721.sol:CountdownERC721",
            "label": "maxSalePurchasePerAddress",
            "offset": 13,
            "slot": "0",
            "type": "t_uint24"
          }
        ],
        "numberOfBytes": "32"
      },
      "t_uint104": {
        "encoding": "inplace",
        "label": "uint104",
        "numberOfBytes": "13"
      },
      "t_uint224": {
        "encoding": "inplace",
        "label": "uint224",
        "numberOfBytes": "28"
      },
      "t_uint24": {
        "encoding": "inplace",
        "label": "uint24",
        "numberOfBytes": "3"
      },
      "t_uint256": {
        "encoding": "inplace",
        "label": "uint256",
        "numberOfBytes": "32"
      }
    }
  }
}